:020000040802F0
:10000000000005206988020851870208538702080A
:100010005587020857870208598702080000000028
:100020000000000000000000000000005B870208E4
:100030005D870208000000005F87020861870208F0
:10004000B9880208B9880208B9880208B988020884
:10005000B9880208B9880208B9880208B988020874
:10006000B988020881570208B9880208B9880208CD
:10007000D9840208B9880208B9880208B988020838
:10008000B9880208B98802089D600208B988020888
:10009000B9880208B9880208B9880208B988020834
:1000A000D962020865620208B9880208B9880208A4
:1000B000B9880208B9880208B9880208B988020814
:1000C000B9880208B9880208B9880208895F02085D
:1000D000B9880208155E0208B9880208B9880208C2
:1000E000B9880208B9880208B9880208B9880208E4
:1000F000B9880208B9880208B9880208B9880208D4
:10010000B9880208B9880208B9880208B9880208C3
:10011000B9880208B9880208B9880208B9620208D9
:10012000B9880208B9880208B9880208B9880208A3
:10013000B9880208B9880208B9880208B988020893
:10014000B9880208B9880208B9880208B988020883
:10015000B9880208B9880208B9880208B988020873
:10016000B9880208B9880208B9880208B988020863
:10017000B9880208B98802080000000000000000E9
:10018000B9880208B9880208C9840208B988020837
:10019000B9880208B988020800000000B98802087E
:1001A000B9880208B98802080000000000000000B9
:1001B000B98802080000000000000000B9880208A9
:1001C000B9880208B9880208B9880208B988020803
:0801D000B9880208B988020891
:1001E00010B5054C237833B9044B13B10448AFF371
:1001F00000800123237010BDFC02002000000000DD
:10020000A8C8020808B5034B1BB103490348AFF364
:10021000008008BD0000000000030020A8C80208FC
:100220004B1C012B98BF70472DE9F003911C9B08D4
:10023000B1F80480B1F802900A8831F802CC804409
:10024000814402448444D9F80070D8F800601568ED
:10025000DCF80040C9F80060C8F80070CCF8005025
:100260001460D9F80470D8F804605568DCF80440CC
:10027000C9F80460C8F80470CCF804505460083120
:10028000013BD5D1BDE8F00370474B1C012B98BF53
:1002900070472DE9F003911C9B08B1F80480B1F878
:1002A00002900A8831F802CC00EB580800EB59099B
:1002B00000EB520200EB5C0CD9F80070D8F800603B
:1002C0001568DCF80040C9F80060C8F80070CCF888
:1002D000005014600831013BDFD1BDE8F0037047E6
:1002E00001F0FF01102A2BDB10F0070F08D010F8E7
:1002F000013B013A8B422DD010F0070F42B3F6D1EB
:10030000F0B441EA012141EA014122F007047FF003
:1003100000070023F0E80256083C85EA010586EA5A
:10032000010685FA47F5A3FA87F586FA47F6A5FA96
:1003300087F68EB9EED1F0BC01F0FF0102F00702A2
:1003400032B110F8013B013A83EA010313B1F8D14D
:100350000020704701387047002D06BF354603382E
:10036000073815F0010F07D1013015F4807F02BF67
:10037000013015F4C03F0130F0BC0138704700BFB8
:10038000034613F8012B002AFBD1181A01387047D5
:1003900081F0004102E000BF83F0004330B54FEA36
:1003A00041044FEA430594EA050F08BF90EA020FA3
:1003B0001FBF54EA000C55EA020C7FEA645C7FEA36
:1003C000655C00F0E2804FEA5454D4EB5555B8BF59
:1003D0006D420CDD2C4480EA020281EA030382EACA
:1003E000000083EA010180EA020281EA0303362D5C
:1003F00088BF30BD11F0004F4FEA01314FF4801C2F
:100400004CEA113102D0404261EB410113F0004F40
:100410004FEA03334CEA133302D0524263EB4303F7
:1004200094EA050F00F0A780A4F10104D5F1200E95
:100430000DDB02FA0EFC22FA05F2801841F10001F0
:1004400003FA0EF2801843FA05F359410EE0A5F1C4
:1004500020050EF1200E012A03FA0EFC28BF4CF0F5
:10046000020C43FA05F3C01851EBE37101F00045AB
:1004700007D54FF0000EDCF1000C7EEB00006EEBB8
:100480000101B1F5801F1BD3B1F5001F0CD3490842
:100490005FEA30004FEA3C0C04F101044FEA445299
:1004A00012F5800F80F09A80BCF1004F08BF5FEA20
:1004B000500C50F1000041EB045141EA050130BD00
:1004C0005FEA4C0C404141EB0101013C28BFB1F512
:1004D000801FE9D291F0000F04BF01460020B1FA5D
:1004E00081F308BF2033A3F10B03B3F120020CDA30
:1004F0000C3208DD02F1140CC2F10C0201FA0CF00E
:1005000021FA02F10CE002F11402D8BFC2F1200C72
:1005100001FA02F120FA0CFCDCBF41EA0C01904028
:10052000E41AA2BF01EB0451294330BD6FEA040471
:100530001F3C1CDA0C340EDC04F11404C4F120025C
:1005400020FA04F001FA02F340EA030021FA04F36E
:1005500045EA030130BDC4F10C04C4F1200220FAC5
:1005600002F001FA04F340EA0300294630BD21FA03
:1005700004F0294630BD94F0000F83F4801306BFC9
:1005800081F480110134013D4EE77FEA645C18BFBD
:100590007FEA655C29D094EA050F08BF90EA020F54
:1005A00005D054EA000C04BF1946104630BD91EA4C
:1005B000030F1EBF0021002030BD5FEA545C05D14F
:1005C0004000494128BF41F0004130BD14F580048E
:1005D0003CBF01F5801130BD01F0004545F0FE4102
:1005E00041F470014FF0000030BD7FEA645C1ABF37
:1005F000194610467FEA655C1CBF0B46024650EA6E
:10060000013406BF52EA033591EA030F41F4002199
:1006100030BD00BF90F0000F04BF0021704730B51F
:100620004FF4806404F132044FF000054FF00001F4
:1006300050E700BF90F0000F04BF0021704730B5B5
:100640004FF4806404F1320410F0004548BF40428A
:100650004FF000013EE700BF42004FEAE2014FEADF
:1006600031014FEA02701FBF12F07F4393F07F4FBA
:1006700081F06051704732F07F4208BF704793F0BD
:100680007F4F04BF41F40021704730B54FF46074D0
:1006900001F0004521F000411CE700BF50EA0102D3
:1006A00008BF704730B54FF000050AE050EA01027C
:1006B00008BF704730B511F0004502D5404261EBEC
:1006C00041014FF4806404F132045FEA915C3FF42D
:1006D000D8AE4FF003025FEADC0C18BF03325FEACA
:1006E000DC0C18BF033202EBDC02C2F1200300FA7B
:1006F00003FC20FA02F001FA03FE40EA0E0021FAA0
:1007000002F11444BDE600BF70B54FF0FF0C4CF48D
:10071000E06C1CEA11541DBF1CEA135594EA0C0F3F
:1007200095EA0C0F00F0DEF82C4481EA030621EA7A
:100730004C5123EA4C5350EA013518BF52EA0335B5
:1007400041F4801143F4801338D0A0FB02CE4FF067
:100750000005E1FB02E506F00042E0FB03E54FF097
:100760000006E1FB03569CF0000F18BF4EF0010E8F
:10077000A4F1FF04B6F5007F64F5407404D25FEA8B
:100780004E0E6D4146EB060642EAC62141EA55513E
:100790004FEAC52040EA5E504FEACE2EB4F1FD0C80
:1007A00088BFBCF5E06F1ED8BEF1004F08BF5FEAFE
:1007B000500E50F1000041EB045170BD06F00046B0
:1007C00046EA010140EA020081EA0301B4EB5C045D
:1007D000C2BFD4EB0C0541EA045170BD41F4801155
:1007E0004FF0000E013C00F3AB8014F1360FDEBF7A
:1007F000002001F0004170BDC4F10004203C35DA56
:100800000C341BDC04F11404C4F1200500FA05F3D8
:1008100020FA04F001FA05F240EA020001F0004279
:1008200021F0004110EBD37021FA04F642EB0601EF
:100830005EEA430E08BF20EAD37070BDC4F10C0419
:10084000C4F1200500FA04F320FA05F001FA04F2DD
:1008500040EA020001F0004110EBD37041F10001C9
:100860005EEA430E08BF20EAD37070BDC4F12005D4
:1008700000FA05F24EEA020E20FA04F301FA05F23C
:1008800043EA020321FA04F001F0004121FA04F2E4
:1008900020EA020000EBD3705EEA430E08BF20EAB4
:1008A000D37070BD94F0000F0FD101F000464000EE
:1008B00041EB010111F4801F08BF013CF7D041EA70
:1008C000060195F0000F18BF704703F00046520074
:1008D00043EB030313F4801F08BF013DF7D043EA45
:1008E0000603704794EA0C0F0CEA135518BF95EAFB
:1008F0000C0F0CD050EA410618BF52EA4306D1D182
:1009000081EA030101F000414FF0000070BD50EAA0
:10091000410606BF1046194652EA430619D094EA2A
:100920000C0F02D150EA013613D195EA0C0F05D114
:1009300052EA03361CBF104619460AD181EA030168
:1009400001F0004141F0FE4141F470014FF0000020
:1009500070BD41F0FE4141F4780170BD70B54FF0BB
:10096000FF0C4CF4E06C1CEA11541DBF1CEA13553B
:1009700094EA0C0F95EA0C0F00F0A7F8A4EB05041D
:1009800081EA030E52EA03354FEA013100F0888014
:100990004FEA03334FF0805545EA131343EA1263DD
:1009A0004FEA022245EA111545EA10654FEA002692
:1009B0000EF000419D4208BF964244F1FD0404F54B
:1009C000407402D25B084FEA3202B61A65EB0305A7
:1009D0005B084FEA32024FF480104FF4002CB6EB64
:1009E000020E75EB030E22BFB61A754640EA0C00E4
:1009F0005B084FEA3202B6EB020E75EB030E22BF24
:100A0000B61A754640EA5C005B084FEA3202B6EB64
:100A1000020E75EB030E22BFB61A754640EA9C0023
:100A20005B084FEA3202B6EB020E75EB030E22BFF3
:100A3000B61A754640EADC0055EA060E18D04FEAB1
:100A4000051545EA16754FEA06164FEAC30343EA51
:100A500052734FEAC2025FEA1C1CC0D111F4801F1E
:100A60000BD141EA00014FF000004FF0004CB6E717
:100A700011F4801F04BF01430020B4F1FD0C88BFB6
:100A8000BCF5E06F3FF6AFAEB5EB030C04BFB6EBC1
:100A9000020C5FEA500C50F1000041EB045170BDB4
:100AA0000EF0004E4EEA113114EB5C04C2BFD4EBE1
:100AB0000C0541EA045170BD41F480114FF0000E65
:100AC000013C90E645EA060E8DE60CEA135594EAE1
:100AD0000C0F08BF95EA0C0F3FF43BAF94EA0C0FE4
:100AE0000AD150EA01347FF434AF95EA0C0F7FF459
:100AF00025AF104619462CE795EA0C0F06D152EAAD
:100B000003353FF4FDAE1046194622E750EA410690
:100B100018BF52EA43067FF4C5AE50EA41047FF4A1
:100B20000DAF52EA43057FF4EBAE12E74FF0FF3C06
:100B300006E000BF4FF0010C02E000BF4FF0010CD7
:100B40004DF804CD4FEA410C7FEA6C5C4FEA430C50
:100B500018BF7FEA6C5C1BD001B050EA410C0CBF9F
:100B600052EA430C91EA030F02BF90EA020F002001
:100B7000704710F1000F91EA030F58BF994208BF68
:100B800090422CBFD8176FEAE37040F00100704725
:100B90004FEA410C7FEA6C5C02D150EA013C07D17C
:100BA0004FEA430C7FEA6C5CD6D152EA033CD3D0C7
:100BB0005DF8040B704700BF8446104662468C46C1
:100BC0001946634600E000BF01B5FFF7B7FF0028F4
:100BD00048BF10F1000F01BD4DF808EDFFF7F4FF1D
:100BE0000CBF012000205DF808FB00BF4DF808EDA8
:100BF000FFF7EAFF34BF012000205DF808FB00BFCB
:100C00004DF808EDFFF7E0FF94BF012000205DF8EC
:100C100008FB00BF4DF808EDFFF7CEFF94BF0120A1
:100C200000205DF808FB00BF4DF808EDFFF7C4FF9A
:100C300034BF012000205DF808FB00BF4FEA410CE3
:100C40007FEA6C5C02D150EA013C0AD14FEA430CC6
:100C50007FEA6C5C02D152EA033C02D14FF0000003
:100C600070474FF0010070474FEA410212F5001241
:100C700015D211D56FF47873B3EB625212D94FEAE3
:100C8000C12343F0004343EA505311F0004F23FACD
:100C900002F018BF404270474FF00000704750EA22
:100CA000013005D111F0004008BF6FF000407047DF
:100CB0004FF00000704700BF4A0011D212F5001239
:100CC00011D20DD56FF47873B3EB62520ED44FEAA4
:100CD000C12343F0004343EA505323FA02F0704724
:100CE0004FF00000704750EA013002D14FF0FF3062
:100CF00070474FF0000070474FEA4102B2F1E04305
:100D000024BFB3F5001CDCF1FE5C0DD901F0004CF2
:100D10004FEAC0024CEA5070B2F1004F40EB830042
:100D200008BF20F00100704711F0804F21D113F16E
:100D30003872BCBF01F00040704741F480114FEAA7
:100D40005252C2F11802C2F1200C10FA0CF320FA30
:100D500002F018BF40F001004FEAC1234FEAD3234D
:100D600003FA0CFC40EA0C0023FA02F34FEA4303B7
:100D7000CCE77FEA625307D150EA01331EBF4FF040
:100D8000FE4040F44000704701F0004040F0FE405B
:100D900040F40000704700BF53B94AB9002908BFAA
:100DA00000281CBF4FF0FF314FF0FF3000F088B932
:100DB000ADF1080C6DE904CE00F006F8DDF804E0B2
:100DC000DDE9022304B070472DE9F047089D8E4607
:100DD00004468846002B4AD18A42174662D9B2FAA5
:100DE00082F64EB1C6F1200301FA06F820FA03F3A9
:100DF000B74043EA0808B4404FEA174E1FFA87FC91
:100E0000B8FBFEF1230C0EFB118843EA084301FBFB
:100E10000CF29A4209D9FB1801F1FF3080F0EA8008
:100E20009A4240F2E78002393B449A1AA3B2B2FBDD
:100E3000FEF00EFB102243EA024300FB0CFC9C4533
:100E400009D9FB1800F1FF3280F0D6809C4540F2B2
:100E5000D3803B44023840EA0140A3EB0C0300215D
:100E60001DB1F3400022C5E90032BDE8F0878B4296
:100E700005D90DB1C5E9000100210846F5E7B3FA2F
:100E800083F1002946D1734502D3824200F20581E5
:100E9000841A6EEB030201209046002DE5D0C5E9CF
:100EA0000048E2E7002A00F09080B2FA82F6002EB5
:100EB00040F0A4808A1A030C4FEA174E80B2BCB2ED
:100EC0000121B2FBFEFC0EFB1C2243EA024304FBA1
:100ED0000CF29A4207D9FB180CF1FF3802D29A4261
:100EE00000F2E080C4469B1AB3FBFEF20EFB123305
:100EF00040EA034302FB04F49C4207D9FB1802F1C9
:100F0000FF3002D29C4200F2CA8002461B1B42EA1A
:100F10000C40A5E7C1F120068B4022FA06F71F43DB
:100F20000EFA01F420FA06F32EFA06FE4FEA1749EC
:100F3000234300FA01F81FFA87FCBEFBF9F01C0CF2
:100F400009FB10EE44EA0E4400FB0CFEA64502FA33
:100F500001F209D93C1900F1FF3A80F09C80A645C6
:100F600040F2998002383C44A4EB0E041FFA83FE41
:100F7000B4FBF9F309FB13444EEA044403FB0CFCF5
:100F8000A44508D93C1903F1FF3E80F08280A445B6
:100F90007FD9023B3C4443EA0040A4EB0C04A0FB95
:100FA00002EC64457346E14662D35FD05DB1B8EBB5
:100FB000030264EB090404FA06F622FA01F31E4365
:100FC000CC40C5E9006400214FE7B1FBF2FC010C05
:100FD00041EA0E4180B240EA01423B4638463C4677
:100FE000B846BE462026B1FBF7F1A2EB080241EA63
:100FF0000C4166E7014618E710462CE7C6F12002CF
:101000002EFA02F3B740B14020FA02F24FEA174E2F
:101010000A43B3FBFEF8BCB20EFB1833110C41EAD5
:10102000034108FB04F9B04089454FEA104380B200
:101030003ED9791808F1FF3C01D289451FD8A1EBB0
:101040000901B1FBFEF909FB04F80EFB191192B27C
:1010500042EA0142424529D2BA1809F1FF31C4D20D
:101060004245C2D2A9F102013A44BEE7F0459DD201
:10107000BEEB02036CEB070C0138E14696E7A7EBE9
:1010800009094944A8F1020CB1FBFEF909FB04F877
:10109000DBE773467FE7504666E70846FDE63B44DC
:1010A000023A33E7ACF1020C3B441CE749469CE7AB
:1010B000A1EB0901C446B1FBFEF909FB04F8C4E742
:1010C000704700BF10B504460E4B1A784FF47A7380
:1010D000B3FBF2F30C4A1068B0FBF3F000F0C6FB70
:1010E00068B90F2C01D901200AE0002221464FF0F7
:1010F000FF3000F095FB034B5C60002000E0012016
:1011000010BD00BF000000203001002008B50B4BCF
:101110001A6842F400721A601A6842F480621A6017
:101120001A6842F480721A60032000F067FB002006
:10113000FFF7C8FF07F082FA002008BD003C02401C
:10114000034A1168034B1B780B441360704700BFC0
:101150001803002000000020014B1868704700BFF2
:101160001803002038B50446FFF7F6FF0546B4F132
:10117000FF3F02D0044B1B781C44FFF7EDFF401BE0
:10118000A042FAD338BD00BF00000020014BD3F8C5
:10119000100A70470070FF1F014BD3F8140A704704
:1011A0000070FF1F014BD3F8180A70470070FF1F33
:1011B0004A4B5A6822F440325A605A6841680A43DE
:1011C0005A600268536823F480735360026853685E
:1011D000016943EA012353600268536823F04073B6
:1011E00053600268536881680B43536002689368D8
:1011F00023F40063936002689368C1680B439360B3
:10120000826A374B9A4257D00268936823F0706322
:10121000936002689368816A0B43936002689368E5
:1012200023F04053936002689368C16A0B43936054
:101230000268936823F00203936002689368017E5A
:1012400043EA4103936090F82030002B3FD00268BE
:10125000536843F4006353600268536823F46043A7
:10126000536001684B68426A013A43EA42334B607B
:101270000268D36A23F47003D3620168CB6AC2693F
:10128000013A43EA0253CB620268936823F4007385
:1012900093600268936890F8301043EA41239360AA
:1012A0000268936823F480639360026893684169DD
:1012B00043EA8123936070470268936823F0706368
:1012C00093600268936823F040539360B0E702682C
:1012D000536823F400635360CAE700BF0023014052
:1012E0000100000F38B310B50446036C43B1236C02
:1012F00013F0100F0BD00120002384F83C3010BDF8
:1013000004F04AFE0023636484F83C30EFE7236C6A
:1013100023F4885323F0020343F00203236420469E
:10132000FFF746FF00206064236C23F0030343F0C3
:1013300001032364E0E701207047000082B000232E
:10134000019390F83C30012B6AD0012380F83C30A7
:1013500003689A6812F0010F13D19A6842F00102F3
:101360009A60344B1B68344AA2FB03239B0C03EBAB
:101370004303019302E0019B013B0193019B002B7E
:10138000F9D10268936813F0010F4BD0036C23F47A
:10139000E06323F0010343F480730364536813F4A0
:1013A000806F05D0036C23F4405343F480530364EF
:1013B000036C13F4805F20D0436C23F00603436476
:1013C000002380F83C306FF02203136002685368FA
:1013D00043F0806343F020035360184B5B6813F0C5
:1013E0001F0F0DD103689A6812F0405F1DD19A68F3
:1013F00042F080429A60002015E000234364DFE75A
:1014000003680F4A934201D000200CE09A6812F062
:10141000405F0CD19A6842F080429A60002002E05E
:10142000022000E0002002B070470020FBE700200F
:10143000F9E700BF3001002083DE1B430023014099
:10144000002001400368D86C70477047704738B57A
:10145000044602681168536811F0020F2FD003F0A0
:10146000200363B3036C13F0100F03D1036C43F438
:1014700000730364936813F0405F19D1237EBBB9F6
:10148000D36A13F4700F03D0936813F4806F0FD1F5
:10149000536823F020035360236C23F48073236488
:1014A000236C13F4805F03D1236C43F001032364A6
:1014B000204604F0FBFD23686FF012021A602368D7
:1014C00019685A6802F0800211F0040F36D0002A21
:1014D00034D0226C12F0100F03D1226C42F400526F
:1014E00022649A6812F4401F21D19A6B12F4401FB3
:1014F00003D09A6812F4806F19D15A6812F4806F81
:1015000015D19A6812F0405F11D1227E7AB95A68DB
:1015100022F080025A60236C23F480532364236CEE
:1015200013F4807F03D1236C43F00103236420462E
:1015300000F00AF923686FF00C021A602268116843
:10154000536803F0400311F0010F04D01BB113687E
:1015500013F0010F09D122681168536803F080630A
:1015600011F0200F00D063B938BD236C43F48033F1
:1015700023642046FFF769FF23686FF001021A60B9
:10158000E9E7636C43F0020363646FF020051560C4
:101590002046FFF75BFF23681D60E5E730B482B0AB
:1015A0000022019290F83C20012A00F0C0800346FE
:1015B000012280F83C200A68092A40D90468E068C2
:1015C00092B202EB42021E3A4FF0070C0CFA02F202
:1015D00020EA0202E2601C68E0680A8802EB42022C
:1015E0001E3A8D6805FA02F20243E2604A68062A52
:1015F0003CD81C68606B02EB8202053A4FF01F0C6E
:101600000CFA02F220EA020262631C68606B4A680C
:1016100002EB8202053AB1F800C00CFA02F2024372
:1016200062631868434A904250D01868414A904219
:1016300059D0002083F83C0002B030BC70470468E9
:10164000206992B202EB42024FF0070C0CFA02F250
:1016500020EA020222611C6820690A8802EB420229
:101660008D6805FA02F202432261BFE70C2A16D800
:101670001D68286B02EB8202233A1F2404FA02F24F
:1016800020EA02022A631D68286B4A6802EB820284
:10169000233A0C8804FA02F202432A63C1E71D6868
:1016A000E86A02EB8202413A1F2404FA02F220EABD
:1016B0000202EA621D68E86A4A6802EB8202413A65
:1016C0000C8804FA02F20243EA62AAE70A68122AC4
:1016D000ABD1194A506820F400005060506840F4C3
:1016E00080005060A1E70A681448824201D0112AA4
:1016F0009FD1114A506820F480005060506840F437
:101700000000506009680D4A914292D10C4A12685B
:101710000C49A1FB0212920C02EB820252000192D0
:10172000019A002A85D0019A013A0192F8E7022035
:1017300082E700BF0020014000230140120000109A
:101740003001002083DE1B437047000000280CDBC3
:1017500000F01F024009012393402030034A42F861
:101760002030BFF34F8FBFF36F8F704700E100E071
:10177000002808DB0901C9B200F1604000F56140B2
:1017800080F80013704700F00F000901C9B2014B47
:101790001954704714ED00E000B500F00700C0F1E7
:1017A000070CBCF1040F28BF4FF0040C031D062BDF
:1017B0000FD9C31E4FF0FF3E0EFA0CF021EA0001D4
:1017C00099400EFA03FE22EA0E0241EA02005DF899
:1017D00004FB0023EEE70000BFF34F8F0549CA6802
:1017E00002F4E062044B1343CB60BFF34F8F00BFA2
:1017F000FDE700BF00ED00E00400FA05074AD368EA
:1018000023F4E0631B041B0C000200F4E0600343BC
:1018100043F0BF6343F40033D360704700ED00E052
:1018200010B50446054BD868C0F30220FFF7B4FF9B
:1018300001462046FFF79CFF10BD00BF00ED00E011
:10184000002807DB00F01F02400901239340024AF1
:1018500042F82030704700BF00E100E008B5FFF714
:1018600075FF08BD08B5FFF7B7FF00000138B0F1FC
:10187000807F0BD24FF0E0235861054AF02182F8B7
:1018800023100020986107221A61704701207047D9
:1018900000ED00E030B405682C6824F480242C604E
:1018A000046863608368402B05D00368996003680F
:1018B000DA6030BC704703689A600368D960F8E763
:1018C00010B40368D9B210390A4AA2FB01421209C6
:1018D000094CA25CC2655F2907D96FF30903043381
:1018E0008365806D5DF8044B70476FF30903836572
:1018F000F7E700BFABAAAAAAC0C80208836A826938
:1019000092B9012B0AD0022B02D00BB100207047F4
:10191000C36A13F0807F28D100207047C36AB3F1F7
:10192000C07F24D000207047B2F5005F09D0022BA1
:1019300025D9032B25D1C36A13F0807F23D1002042
:101940007047032B03D8DFE803F01404140A0020C7
:101950007047C36A13F0807F0DD100207047C36ABF
:10196000B3F1C07F09D000207047012070470120EB
:101970007047012070470120704701207047012007
:1019800070470020704701207047000070B5044682
:10199000FFF7E2FB002C5BD00546002384F83430CF
:1019A000022384F835302268136823F001031360A2
:1019B00023681A6812F0010F0AD0FFF7CDFB431B12
:1019C000052BF5D920236365032084F8350070BD0D
:1019D0001A68204911406268A0680243E068024327
:1019E0002069024360690243A0690243E06902433F
:1019F000206A02430A43616A04291ED01A602668DD
:101A0000756925F00705636A1D43042B07D1A36A96
:101A10001D43E36A1BB12046FFF770FF90B9756163
:101A20002046FFF74DFFE26D3F2393408360002087
:101A30006065012384F83530C9E7E16A206B014312
:101A40000A43DBE740236365012084F83500BEE7E5
:101A50000120BCE73F8010E038B50446856D90F862
:101A60003400012830D0012084F8340094F8350087
:101A7000C0B2012804D0002384F83430022038BDDD
:101A8000022084F83500002060652046FFF702FF41
:101A9000E26D3F239340AB602268136843F0160366
:101AA00013602268536943F080035361236C23B1B0
:101AB0002268136843F0080313602268136843F038
:101AC000010313600020DAE70220D8E790F83530F0
:101AD000DBB2022B03D0802343650120704705232E
:101AE00080F835300268136823F00103136000208A
:101AF00070470000F0B583B0044600230193724B99
:101B00001D68724BA3FB0535AD0A876D3E68C26D3B
:101B100008239340334210D003681A6812F0040F70
:101B20000BD01A6822F004021A60C26D0823934099
:101B3000BB60436D43F001034365E26D01239340B5
:101B4000334209D02268526912F0800F04D0BB6082
:101B5000636D43F002036365E26D042393403342F7
:101B600009D02268126812F0020F04D0BB60636DC6
:101B700043F004036365E26D10239340334224D0A5
:101B80002268126812F0080F1FD0BB6023681A6821
:101B900012F4802F0DD01B6813F4002F04D1236C96
:101BA0009BB12046984710E0A36C73B1204698473C
:101BB0000BE01A6812F4807F03D11A6822F0080241
:101BC0001A60236C0BB120469847E26D20239340A6
:101BD000334255D02268126812F0100F50D0BB600B
:101BE00094F83530DBB2052B0ED023681A6812F456
:101BF000802F33D01B6813F4002F2AD1636C002B85
:101C00003ED0204698473BE02268136823F0160335
:101C100013602268536923F080035361236CA3B1DE
:101C20002268136823F008031360E26D3F2393409A
:101C3000BB60002384F83430012384F83530236DF1
:101C4000002B3FD0204698473CE0A36C002BE7D107
:101C5000EBE7E36BA3B12046984711E01A6812F452
:101C6000807F09D11A6822F010021A60002384F8DC
:101C70003430012384F83530E36B0BB120469847AC
:101C8000636DFBB1636D13F0010F17D0052384F86A
:101C900035302268136823F001031360019B013380
:101CA0000193AB4204D823681B6813F0010FF5D1F0
:101CB000002384F83430012384F83530E36C0BB111
:101CC0002046984703B0F0BD30010020B5814E1B7F
:101CD00010B409490C6924F440740C610C6944F493
:101CE00040740C610C6944F001040C6102604360B3
:101CF0005DF8044B704700BF003C0240074B1A6977
:101D000022F440721A611A6942F400721A611A6967
:101D100042F001021A610160704700BF003C0240BE
:101D2000074B1A6922F440721A611A6942F48072F0
:101D30001A611A6942F001021A610180704700BFFE
:101D4000003C0240064B1A6922F440721A611A697B
:101D50001A611A6942F001021A610170704700BFEE
:101D6000003C0240274BDB6813F0100F07D0264AD7
:101D7000D36943F01003D361224B1022DA60214B68
:101D8000DB6813F0200F07D01F4AD36943F0080324
:101D9000D3611C4B2022DA601A4BDB6813F0400F32
:101DA00007D0194AD36943F00403D361154B40228D
:101DB000DA60144BDB6813F0800F07D0124AD36946
:101DC00043F00203D3610F4B8022DA600D4BDB68D6
:101DD00013F4807F08D00C4AD36943F00103D36128
:101DE000084B4FF48072DA60064BDB6813F0020F89
:101DF00007D0054AD36943F02003D361014B022287
:101E0000DA607047003C02401C03002038B50446ED
:101E1000144B0022DA61FFF79FF90546124BDB688D
:101E200013F4803F0AD0B4F1FF3FF7D024B1FFF79D
:101E300093F9401BA042F1D903200DE00A4BDB6867
:101E400013F0010F02D0084B0122DA60064BDB6869
:101E500013F4F97F01D1002038BDFFF783FF012083
:101E6000FAE700BF1C030020003C0240F8B516460C
:101E70001B4A127E012A30D004460D461F46184BDD
:101E800001221A764CF25030FFF7C0FF90B9ACB186
:101E9000012C18D0022C1BD032463B462846FFF7B7
:101EA00017FF4CF25030FFF7B1FF0E4A136923F0D1
:101EB000010313610A4B00221A76F8BDF1B22846DD
:101EC000FFF740FFEDE7B1B22846FFF729FFE8E74B
:101ED00031462846FFF712FFE3E70220EDE700BF97
:101EE0001C030020003C0240012905D0022906D035
:101EF00039B14FF4407104E04FF4807101E04FF4C8
:101F000000710B4B1A6922F440721A611A690A4374
:101F10001A611A6922F0F8021A611A6942EAC000CD
:101F200040F0020018611A6942F480321A61704769
:101F3000003C024000230F2B00F2D48070B582B029
:101F40003AE0062200E00022AA4032430234664D05
:101F500045F82420654A14686FEA0C0224EA0C054F
:101F60004E6816F4803F01D04CEA04055F4C2560B2
:101F7000646802EA04054E6816F4003F01D04CEA9A
:101F800004055A4C6560A46802EA04054E6816F41C
:101F9000801F01D04CEA0405544CA560E46822403F
:101FA0004D6815F4001F01D04CEA04024F4CE2606A
:101FB00001330F2B00F2948001229A400C6804EA4E
:101FC000020C32EA0404F3D14C68022C01D0122C2A
:101FD00012D1DD08083550F8254003F00706B60099
:101FE0004FF00F0E0EFA06FE24EA0E0E0C69B440F6
:101FF00044EA0E0440F8254006684FEA430E0324E5
:1020000004FA0EF4E54326EA04064C6804F00304DF
:1020100004FA0EF4344304604C68661E012E03D9A2
:10202000112C01D0122C0FD186682E40CC6804FAF6
:102030000EF434438460446824EA02044A68C2F31C
:1020400000129A4022434260C26815408A6802FA30
:102050000EF22A43C2604A6812F0805FA8D00022C4
:102060000192234A546C44F480445464526C02F448
:1020700080420192019A9C08A51C1B4A52F82560D7
:1020800003F00305AD000F22AA4026EA0206194A12
:1020900090423FF458AF02F58062904216D002F5AC
:1020A0008062904214D002F58062904212D002F514
:1020B0008062904210D002F5806290420ED002F50C
:1020C000806290423FF43DAF07223DE701223BE7AB
:1020D000022239E7032237E7042235E7052233E7F6
:1020E00002B070BD704700BF00380140003C0140A5
:1020F00000380240000002400AB1816170470904C3
:1021000081617047436931EA030301D081617047FF
:10211000090481617047000008B5264B9B6803F0F5
:102120000C03042B41D0082B41D1224B5A6802F0FA
:102130003F025B6813F4800F12D01E4B5968C1F345
:1021400088111D480023A1FB0001FEF725FE194B55
:102150005B68C3F3014301335B00B0FBF3F008BDE0
:10216000144B5868C0F388104FEA401CBCEB000CBD
:102170006EEB0E0E4FEA8E1343EA9C634FEA8C110E
:10218000B1EB0C0163EB0E03DB0043EA5173C900B2
:1021900011EB000C43F10003990200234FEA8C205D
:1021A00041EA9C51FEF7F8FDD1E70348D7E7034821
:1021B000D5E700BF00380240001BB7000024F40040
:1021C000002800F09A8070B50D4604464F4B1B68FE
:1021D00003F00F038B4208D2CBB24C4A1370136842
:1021E00003F00F038B4240F08A80236813F0020F44
:1021F00017D013F0040F04D0454A936843F4E0531A
:102200009360236813F0080F04D0414A936843F4A5
:10221000604393603E4A936823F0F003A1680B4348
:102220009360236813F0010F32D06368012B21D033
:102230009A1E012A25D9364A126812F0020F60D080
:1022400033498A6822F0030213438B60FEF784FF50
:1022500006462F4B9B6803F00C036268B3EB820FBA
:1022600016D0FEF779FF801B41F288339842F0D9EF
:10227000032041E0264A126812F4003FE0D1012019
:102280003AE0234A126812F0007FD9D1012033E0EE
:102290001E4B1B6803F00F03AB4207D9EAB21B4B7E
:1022A0001A701B6803F00F03AB422CD1236813F0A4
:1022B000040F06D0164A936823F4E053E1680B43F9
:1022C0009360236813F0080F07D0114A936823F432
:1022D0006043216943EAC1039360FFF71DFF0C4B84
:1022E0009B68C3F303130B4AD35CD8400A4B1860B6
:1022F0000020FEF7E7FE002070BD0120704701209E
:10230000FAE70120F8E70120F6E700BF003C0240B1
:1023100000380240E8FD020830010020014B186837
:10232000704700BF3001002008B5FFF7F7FF044BEE
:102330009B68C3F38223034AD35CD84008BD00BF27
:1023400000380240F8FD020808B5FFF7E7FF044B2C
:102350009B68C3F34233034AD35CD84008BD00BF37
:1023600000380240F8FD020870B582B004460368E8
:1023700013F0010F3BD09F4B9B6803F00C03042B21
:102380002CD09C4B9B6803F00C03082B21D0636876
:10239000B3F5803F4FD0B3F5A02F52D0954B1A68BC
:1023A00022F480321A601A6822F480221A6063686C
:1023B000002B50D0FEF7D0FE05468E4B1B6813F461
:1023C000003F14D1FEF7C8FE401B6428F5D9032056
:1023D0008BE1884B5B6813F4800FD8D0854B1B686A
:1023E00013F4003F03D06368002B00F07981236869
:1023F00013F0020F54D07F4B9B6813F00C0F3ED0AC
:102400007C4B9B6803F00C03082B33D0E368002B54
:1024100068D0794B01221A60FEF79EFE0546754B87
:102420001B6813F0020F54D1FEF796FE401B0228E2
:10243000F5D9032059E16F4A136843F480331360E0
:10244000B5E76C4B1A6842F480221A601A6842F4AD
:1024500080321A60ABE7FEF77FFE0546654B1B68CE
:1024600013F4003FC3D0FEF777FE401B6428F5D974
:1024700003203AE15F4B5B6813F4800FC6D15D4BDC
:102480001B6813F0020F03D0E368012B40F02A8190
:10249000584A136823F0F803216943EAC103136023
:1024A000236813F0080F42D063696BB3524B0122CB
:1024B000C3F8802EFEF750FE05464E4B5B6F13F0BF
:1024C000020F34D1FEF748FE401B0228F5D9032045
:1024D0000BE1484A136823F0F803216943EAC1037A
:1024E0001360DDE7444B00221A60FEF735FE054617
:1024F000404B1B6813F0020FD2D0FEF72DFE401B9D
:102500000228F5D90320F0E03B4B0022C3F8802ECF
:10251000FEF722FE0546374B5B6F13F0020F06D025
:10252000FEF71AFE401B0228F5D90320DDE02368E0
:1025300013F0040F76D02F4B1B6C13F0805F33D158
:10254000002301932B4B1A6C42F080521A641B6CCF
:1025500003F080530193019B0125284B1B6813F462
:10256000807F23D0A368012B34D0052B38D0214B9A
:102570001A6F22F001021A671A6F22F004021A671A
:10258000A368002B3CD0FEF7E7FD0646194B1B6FF6
:1025900013F0020F45D1FEF7DFFD801B41F28833B7
:1025A0009842F3D90320A0E00025D6E7134A136828
:1025B00043F480731360FEF7CFFD06460F4B1B6894
:1025C00013F4807FCED1FEF7C7FD801B0228F5D91A
:1025D00003208AE0074A136F43F001031367CFE734
:1025E000044B1A6F42F004021A671A6F42F001029C
:1025F0001A67C5E7003802400000474200700040FB
:10260000FEF7AAFD06463B4B1B6F13F0020F08D0E6
:10261000FEF7A2FD801B41F288339842F3D90320D4
:1026200063E0E5B9A369002B5ED0324A926802F0FC
:102630000C02082A5BD0022B17D02F4B00221A66FF
:10264000FEF78AFD04462B4B1B6813F0007F45D034
:10265000FEF782FD001B0228F5D9032045E0254A3C
:10266000136C23F080531364DCE7234B00221A66BB
:10267000FEF772FD05461F4B1B6813F0007F06D066
:10268000FEF76AFD401B0228F5D903202DE0E3691F
:10269000226A1343626A43EA8213A26A5208013A29
:1026A00043EA0243E26A43EA0263226B43EA0273AB
:1026B000104A5360104B01221A66FEF74DFD044686
:1026C0000C4B1B6813F0007F06D1FEF745FD001B85
:1026D0000228F5D9032008E0002006E0002004E0ED
:1026E000012002E0012000E0002002B070BD0120C6
:1026F000FBE700BF00380240000047422DE9F041EF
:102700000646884617461D463468A46838EA04041D
:102710000CBF01240024BC4237D0B5F1FF3FF3D0F9
:10272000FEF71AFD069BC01AA84201D2002DEBD17C
:102730003268536823F0E00353607368B3F5827F17
:102740000BD0B36AB3F5005F14D0012386F8513083
:10275000002386F85030032018E0B368B3F5004F2B
:1027600002D0B3F5806FECD13268136823F04003D8
:102770001360E6E73268136823F40053136032688D
:10278000136843F400531360DFE70020BDE8F081D5
:1027900010B584B00446164B1868164BA3FB0030E6
:1027A000400D4FF47A7303FB00F003906368B3F5B8
:1027B000827F0BD0039BBBB1039B013B0393236838
:1027C0009B6813F0800FF5D100200EE000920B46BD
:1027D000002280212046FFF791FF30B1636D43F066
:1027E00020036365032000E0002004B010BD00BF9B
:1027F00030010020819F5E1610B582B004460B4662
:102800004168B1F5827F14D06168B1F5827F2AD129
:10281000A168B1F5806F19D0009200228021204676
:10282000FFF76CFF30B3636D43F020036365032053
:1028300020E08168B1F5004F02D0B1F5806FE3D19F
:102840002068016821F040010160DDE7009200226C
:1028500001212046FFF752FF60B1636D43F0200372
:102860006365032006E00092002201212046FFF765
:1028700045FF08B902B010BD636D43F020036365E6
:102880000320F7E700283BD010B5044600238362FD
:1028900090F85130002B2ED0022384F8513022685A
:1028A000136823F0400313606368A2681343E2686F
:1028B00013432269134362691343A26902F400724D
:1028C0001343E2691343226A1343A16A22680B434C
:1028D0001360638B03F00403616A22680B43536047
:1028E0002268D36923F40063D3610020606501236B
:1028F00084F8513010BD80F8503003F005FBCBE771
:10290000012070472DE9F04383B01D4690F8503008
:10291000012B00F0CC80044688469146012380F8C4
:102920005030FEF719FC074694F85160F6B2012EBC
:1029300040F0AA80B8F1000F00F0A780B9F1000FB5
:1029400000F0A380032384F8513000236365C4F8AA
:102950003080A4F83490A4F83690A363A387E3876B
:1029600063642364A368B3F5004F1ED023681A681C
:1029700012F0400F03D11A6842F040021A60E36877
:10298000B3F5006F17D0636813B1B9F1010F4DD1E2
:10299000226B236812781A73236B01332363E38E4F
:1029A0009BB2013B9BB2E38640E02268136843F48C
:1029B00080431360DAE7636813B1B9F1010F16D1F0
:1029C000226B23681288DA60236B02332363E38E61
:1029D0009BB2013B9BB2E38609E0FEF7BDFBC01B47
:1029E000A84202D3B5F1FF3F59D1002D59D0E38E53
:1029F0009BB2002B33D023689A6812F0020FECD000
:102A0000226B1288DA60236B02332363E38E9BB25E
:102A1000013B9BB2E386EAE7FEF79EFBC01BA842A0
:102A200002D3B5F1FF3F3ED1002D3ED0E38E9BB2E5
:102A3000ABB123689A6812F0020FEDD0226B1278C6
:102A40001A73236B01332363B4F836C01FFA8CFC6E
:102A50000CF1FF3C1FFA8CFCA4F836C0E6E73A46BE
:102A600029462046FFF794FE08B120236365A3683A
:102A700033B901932368DA6801929B680193019B43
:102A8000636D13B9002600E00226012384F851305B
:102A9000002384F85030304603B0BDE8F0830326AD
:102AA000F3E70326F1E70326EFE70326EDE7022627
:102AB000F1E72DE9F04383B01F460A9D90F85030AE
:102AC000012B00F01481044688469146012380F8CA
:102AD0005030FEF741FB064694F85130DBB2626895
:102AE000012B0AD0B2F5827F40F0E780A268002A6D
:102AF00040F0ED80042B40F0EC80B8F1000F00F0C6
:102B0000EA80B9F1000F00F0E880002F00F0E780C4
:102B100094F85130DBB2042B02D0052384F85130F5
:102B200000236365C4F83890E787A787C4F830802E
:102B3000E786A7862364636423681A6812F0400F4F
:102B400003D11A6842F040021A60E368B3F5006FDF
:102B500015D0A36B7A1E1344A36363680BB1012FD6
:102B60000BD1226B236812781A73236B0133236312
:102B7000E38E9BB2013B9BB2E38601276BE0636867
:102B80000BB1012F0BD1226B23681288DA60236B03
:102B900002332363E38E9BB2013B9BB2E3860127A2
:102BA0001CE023689A6812F0010F0ED0E28F92B2F7
:102BB0005AB1DA68A36B1A80A36B0233A363E38F65
:102BC0009BB2013B9BB2E3870127FEF7C5FA801B4E
:102BD000A84203D3B5F1FF3F40F08380E38E9BB260
:102BE0001BB9E38F9BB2002B53D023689A6812F075
:102BF000020FD6D0E28E92B2002AD2D0002FD0D0CF
:102C0000226B1288DA60236B02332363E38E9BB25C
:102C1000013B9BB2E3860027C3E723689A6812F062
:102C2000010F0ED0E28F92B25AB1DA68A36B1A701C
:102C3000A36B013BA363E38F9BB2013B9BB2E38792
:102C40000127FEF789FA831BAB4202D3B5F1FF3FA0
:102C500049D1002D49D0E38E9BB213B9E38F9BB2CB
:102C6000BBB123689A6812F0020FD6D0E28E92B2FE
:102C7000002AD2D0002FD0D0226B12781A73236B87
:102C800001332363E38E9BB2013B9BB2E3860027B3
:102C9000C3E7324629462046FFF77AFD48B9A368C4
:102CA00063B901932368DA6801929B680193019BE1
:102CB00004E020236365012000E00220012384F862
:102CC0005130002384F8503003B0BDE8F083022077
:102CD000F4E70220F2E70120F0E70120EEE701200F
:102CE000ECE70320EAE70320E8E70320E6E7022019
:102CF000EAE72DE9F04383B00446884691461D4635
:102D00004068B0F5827F38D094F85030012B00F045
:102D1000A980012384F85030FEF71EFA074694F884
:102D20005160F6B2012E40F08A80B8F1000F00F039
:102D30008780B9F1000F00F08380042384F85130BC
:102D400000236365C4F83880A4F83C90A4F83E9052
:102D50002363A386E38623646364A368B3F5004F0B
:102D600019D023681A6812F0400F03D11A6842F094
:102D700040021A60E368F3B13CE0A368002BC3D1C2
:102D8000042384F85130009513460A462046FFF785
:102D900090FE06465AE02268136823F480431360CD
:102DA000DFE7FEF7D9F9C01BA84202D3B5F1FF3F18
:102DB00050D1002D50D0E38F9BB2002B33D023682D
:102DC0009A6812F0010FECD0A26B1B7B1370A36BFF
:102DD0000133A363E38F9BB2013B9BB2E387EAE736
:102DE000FEF7BAF9C01BA84202D3B5F1FF3F35D1B7
:102DF000002D35D0E38F9BB2ABB123689A6812F0F7
:102E0000010FEDD0DA68A36B1A80A36B0233A363C2
:102E1000B4F83EC01FFA8CFC0CF1FF3C1FFA8CFC8E
:102E2000A4F83EC0E6E73A4629462046FFF7E4FC10
:102E300008B120236365636D13B9002600E0022604
:102E4000012384F85130002384F85030304603B019
:102E5000BDE8F0830326F3E70326F1E70326EFE757
:102E60000326EDE70226F1E77047000030B585B094
:102E70000446026851689368C3F3801013F0400F52
:102E800005D113F0010F02D011F0400F69D113F0FA
:102E9000020F02D011F0800F67D1C3F3401513F079
:102EA000200F03D110B913F4807F61D011F0200FEF
:102EB0005ED078B194F85100C0B203285AD0606D4A
:102EC00040F00400606500200090D0680090906899
:102ED0000090009865B1606D40F0010060650020D1
:102EE000029090680290106820F040001060029AF2
:102EF00013F4807F09D0636D43F0080363650023FA
:102F0000039323689B680393039B636D002B2FD06F
:102F10002268536823F0E0035360012384F85130A2
:102F200011F0030F2ED02268536823F0030353607F
:102F3000E36C4BB1154A1A65E06CFEF7C7FD18B19A
:102F4000636D43F040036365A36C8BB10F4A1A6550
:102F5000A06CFEF7BBFD58B1636D43F040036365A1
:102F600006E0236C2046984702E0636C20469847B1
:102F700005B030BD00230193D3680193936801939A
:102F8000019BF5E72046FFF76FFFF1E7912F02085D
:102F900008B5806B0023C387C386FFF765FF08BDB4
:102FA0000268D36843F00103D3600268936803F0BA
:102FB0000703062B03D0136843F0010313600020BE
:102FC000704700000368304A904212D0B0F1804F41
:102FD0000FD0A2F57C4290420BD002F58062904265
:102FE00007D002F58062904203D002F57842904209
:102FF00003D123F070034A681343234A90422AD036
:10300000B0F1804F27D0A2F57C42904223D002F548
:10301000806290421FD002F5806290421BD002F580
:103020007842904217D002F57052904213D002F5C8
:10303000806290420FD002F5806290420BD0A2F5E0
:103040009832904207D002F58062904203D002F598
:103050008062904203D123F44073CA68134323F083
:1030600080034A69134303608B68C3620B68836201
:10307000054B984203D003F58063984201D10B6958
:10308000036301234361704700000140B0B110B5F4
:10309000044690F83D3063B1022384F83D30214668
:1030A00051F8040BFFF78EFF012384F83D30002018
:1030B00010BD80F83C3003F07FF8EDE70120704749
:1030C0000268D36823F0C003D360202380F839302E
:1030D00070470268D36823F49073D3600268536921
:1030E00023F001035361202380F83A30704790F8B1
:1030F0003930DBB2212B01D0022070478368B3F551
:10310000805F17D0036A5A1C02621A7803685A60FB
:10311000C38C9BB2013B9BB2C3844BB90268D3689A
:1031200023F08003D3600268D36843F04003D36088
:1031300000207047036A1B880268C3F308035360CA
:1031400003691BB9036A02330362E1E7036A0133CF
:103150000362DDE72DE9F04104460268136923F4B8
:103160004053C1680B431361836802691A43436982
:103170001A43C3691A430168CB6823F4164323F04A
:103180000C031343CB600268536923F440738169D5
:103190000B435361C369B3F5004F5ED00368B54A72
:1031A000934200F0108102F58062934200F00B819F
:1031B000FFF7BAF800EB800000EB800063689B002B
:1031C000B0FBF3F5AC4FA7FB05356D092E01FFF7FA
:1031D000ABF800EB800000EB800063689B00B0FB65
:1031E000F3F5FFF7A1F800EB800000EB80006368C7
:1031F0009B00B0FBF3F0A7FB003040094FF06408E0
:1032000008FB10531B013233A7FB03235B0903F0B8
:10321000F003F518FFF788F800EB800000EB800062
:1032200063689B00B0FBF3F6FFF77EF800EB8000CD
:1032300000EB800063689B00B0FBF3F0A7FB00305D
:10324000400908FB10631B013233A7FB0373C3F370
:10325000431322681D44956009E10368854A93423F
:103260005AD002F58062934256D0FFF75DF800EB2A
:10327000800000EB800863685B00B8FBF3F87E4ECB
:10328000A6FB08384FEA58184FEA0818FFF74CF821
:1032900000EB800000EB800063685B00B0FBF3F59F
:1032A000FFF742F800EB800000EB800063685B00F2
:1032B000B0FBF3F3A6FB03235B09642707FB13555D
:1032C000ED003235A6FB05356D096D0005F4F87586
:1032D0004544FFF729F800EB800000EB80006368AD
:1032E0005B00B0FBF3F8FFF71FF800EB800000EB8A
:1032F000800063685B00B0FBF3F3A6FB03235B096C
:1033000007FB1383DB003233A6FB0363C3F34213D3
:1033100022681D449560AAE0FFF716F800EB8000D4
:1033200000EB800063685B00B0FBF3F8524EA6FB35
:1033300008384FEA58184FEA0818FFF705F800EB6D
:10334000800000EB800063685B00B0FBF3F5FEF7E4
:10335000FBFF00EB800000EB800063685B00B0FBCC
:10336000F3F3A6FB03235B09642707FB1355ED006A
:103370003235A6FB05356D096D0005F4F875454439
:10338000FEF7E2FF00EB800000EB800063685B006B
:10339000B0FBF3F8FEF7D8FF00EB800000EB8000F5
:1033A00063685B00B0FBF3F3A6FB03235B0907FB39
:1033B0001383DB003233A6FB0363C3F3421322689B
:1033C0001D44956053E0FEF7BFFF00EB800000EB6B
:1033D000800063689B00B0FBF3F5274FA7FB053522
:1033E0006D092E01FEF7B0FF00EB800000EB8000BE
:1033F00063689B00B0FBF3F5FEF7A6FF00EB8000CF
:1034000000EB800063689B00B0FBF3F0A7FB00308B
:1034100040094FF0640808FB10531B013233A7FB2F
:1034200003235B0903F0F003F518FEF78DFF00EBB3
:10343000800000EB800063689B00B0FBF3F6FEF7B2
:1034400083FF00EB800000EB800063689B00B0FB13
:10345000F3F0A7FB0030400908FB10631B01323377
:10346000A7FB0373C3F3431322681D449560BDE8B3
:10347000F08100BF001001401F85EB5158B310B51B
:10348000044690F839300BB3242384F8393022688D
:10349000D36823F40053D3602046FFF75BFE226815
:1034A000136923F4904313612268536923F02A03BC
:1034B00053612268D36843F40053D3600020E06373
:1034C000202384F8393084F83A3010BD80F8383041
:1034D00005F0D0F8D8E701207047000038B5134652
:1034E00090F83920D2B2202A30D1044600292FD0BA
:1034F000002B2FD090F83820012A2DD0012280F8FF
:10350000382001628384C3840025C563212280F8AA
:103510003920026B1148D063226B11481064226B72
:103520001048D064226B156522680432206BFEF7C8
:1035300093FA23686FF040021A6084F838502268CA
:10354000536943F080035361284600E0022038BDF0
:103550000120FCE70120FAE70220F8E769350208BC
:10356000B53502086136020808B50346806B1B6852
:103570001B6813F4807F0CD10023C3840268536955
:1035800023F0800353610268D36843F04003D360A3
:1035900008BD04F07FFFFBE708B50168CA6822F0A8
:1035A0004002CA60202280F8392004F073FF002016
:1035B00008BD704708B5806BFFF7FBFF08BD70477B
:1035C00008B590F83A30DBB2222B46D18368B3F5C8
:1035D000805F0FD003690BBB03685A68836A591C6C
:1035E00081621A70C38D9BB2013B9BB2C385F3B15C
:1035F000002008BD826A036943B903685B68C3F3AE
:1036000008031380836A02338362EBE703685B6815
:10361000DBB21380836A01338362E3E703685B688C
:10362000826A511C816203F07F031370DAE702683B
:10363000D36823F02003D3600268D36823F4807337
:10364000D3600268536923F001035361202380F89B
:103650003A30FFF7B4FF0020CBE70220C9E77047FC
:1036600010B5846B23685A6994F83930DBB2212B8A
:1036700010D023685A6902F0400294F83A30DBB265
:10368000222B11D0E36B43F01003E3632046FFF7D6
:10369000E6FF10BD02F08002002AEAD00023E38496
:1036A0002046FFF70DFDE4E7002AEBD00023E38579
:1036B0002046FFF70EFDE5E710B5044602681368E3
:1036C000D168526913F00F0F08D113F0200F0BD0FF
:1036D00011F0200F08D0FFF773FF11E012F0010284
:1036E0000FD111F4907F0CD113F0800F02D011F0A4
:1036F000800F65D113F0400F02D011F0400F63D15D
:1037000010BD13F0010F06D011F4807F03D0E06BE1
:1037100040F00100E06313F0040F04D01AB1E06B35
:1037200040F00200E06313F0020F04D01AB1E06B26
:1037300040F00400E06313F0080F04D01AB1E26B0C
:1037400042F00802E263E26B002AD9D013F0200FA6
:1037500002D011F0200F21D123685B6903F04003F0
:10376000E26B12F0080F00D123B32046FFF7B1FC43
:1037700023685A6912F0400F18D05A6922F04002AB
:103780005A61636B73B1124A1A65606BFEF79EF95A
:103790000028B5D0606B036D9847B1E72046FFF76E
:1037A0000FFFD9E72046FFF75AFFA9E72046FFF7AA
:1037B00056FFA5E72046FFF752FF0023E3639FE78C
:1037C0002046FFF794FC9BE72046FFF7E5FE97E7CE
:1037D000D537020808B5806B0023C385C384FFF783
:1037E0003EFF08BD08B5034B187001F0A7FB024B64
:1037F000986008BD3C03002008000020034B012214
:103800001A7000225A609A60704700BF4803002077
:10381000014B00221A7070474803002008B50220AF
:1038200001F064FEC0F3071008BD0000074A012341
:103830001371074901F5F830002380F89C350B60BF
:103840004B6004490B60D370D360704708000020C0
:10385000800300205403002030B593B0284B1B7820
:10386000012B49D0274B03221A71274BD02283F812
:103870007B20254D95F87B0002F0D4FA684603F0D2
:10388000B9FB204BDDF821209A60DDF82520DA60B5
:10389000DDF829201A61DDF82D205A61DDF831208C
:1038A0009A61DDF83520DA61DDF839201A62DDF839
:1038B0003D205A62DDF841209A62144800F5F83242
:1038C000002482F89C45046044601C601B7947F624
:1038D000645202FB03F38360EC600D4A21460C3016
:1038E00006F074FE224601210920FDF799FF092008
:1038F000FDF7A6FF13B030BD024B04221A71B8E7E2
:10390000CC3F022054030020080000208003002048
:1039100090F5010008B5094901F5F832002382F855
:103920009C35074A0120D07013710B604B60D36047
:10393000044A13600920FDF783FF08BD80030020BF
:10394000080000205403002010B50A4C2146002036
:1039500004F04CFC0849002004F048FC21460020FB
:1039600004F044FC054B0022DA700920FDF776FFD5
:1039700010BD00BF00FE02081CFE02080800002067
:103980002DE9F0432DED028B85B00446C54B1B7825
:10399000012B40F0468100231E461D46027862F34B
:1039A0000703427862F30F23827862F3174313F41C
:1039B000000F01D043F07F4307EE903AF8EEE77A2C
:1039C000FDEEE77A17EE900AFCF734FE8046894652
:1039D000B54FB868FCF740FE42464B46FCF794FEF4
:1039E00080468946F868FCF737FE42464B46FCF7AE
:1039F000D5FCFDF781F907EE900A9FEDAC7AF4EE65
:103A0000C77AF1EE10FA09DC9FEDA97AF4EEC77AD5
:103A1000F1EE10FA04D5DFEDA67A01E0DFEDA37A2E
:103A2000BDEEE78AE37863F30706237963F30F2695
:103A3000637963F3174616F4000F01D046F07F4612
:103A400007EE906AF8EEE77AFDEEE77A17EE900A55
:103A5000FCF7F0FD06460F46DFF84C82D8F814005C
:103A6000FCF7FAFD32463B46FCF74EFE06460F4693
:103A7000D8F81800FCF7F0FD32463B46FCF78EFC08
:103A8000FDF73AF907EE900A9FED887AF4EEC77ACF
:103A9000F1EE10FA09DC9FED867AF4EEC77AF1EECA
:103AA00010FA04D5DFED827A01E0DFED807AFDEED9
:103AB000E78AA37963F30705E37963F30F25237A94
:103AC00063F3174515F4000F01D045F07F4507EE6D
:103AD000905AF8EEE77AFDEEE77A17EE900AFCF7D7
:103AE000A9FD04460D46704E306AFCF7B5FD22462E
:103AF0002B46FCF709FE04460D46706AFCF7ACFD48
:103B000022462B46FCF74AFCFDF7F6F807EE900A32
:103B10009FED667AF4EEC77AF1EE10FA09DC9FEDBC
:103B2000647AF4EEC77AF1EE10FA04D5DFED607A2C
:103B300001E0DFED5E7AFDEEE77AF8EEE77A9FEDE1
:103B40005D7A67EE877A584B93ED046AC7EE866A12
:103B5000CDED016AF8EEC87A67EE877A93ED076AD1
:103B6000C7EE866AF1EE667ACDED027AF8EEE87A73
:103B700067EE877AD3ED0A6A87EEA67A8DED037A2F
:103B80004D4F78684D4EA6FB00201C7907F10C05BF
:103B9000224601A905EB500006F097FD7B68A6FBC5
:103BA00003234FF47A6004FB00F000EB530022463D
:103BB00002A9284406F089FD7B68A6FB03634FF445
:103BC000FA5004FB00F000EB5300224603A92844FE
:103BD00006F07BFD38494868334A137903EB430408
:103BE000204448601168033111603549CA680332C6
:103BF000CA602C49097801292FD047F6645404FB88
:103C000003F3984233D02E4B9B689A4233D02A4B11
:103C10005A681B689A4236D005B0BDEC028BBDE8ED
:103C2000F083254D6868204B1E7905F10C0732465C
:103C3000A119384406F049FD6868304432462146EF
:103C4000384406F042FD686800EB4600324604EB5B
:103C50004601384406F039FDBCE742F6E06404FB57
:103C600003F39842CFD1144B00205860CBE7124B9E
:103C700000205860C7E70029C9D1114B0022DA7033
:103C8000FFF762FEC3E7074B1B78012B02D0FFF75B
:103C9000CDFDC1E70B4B0C4A1A600C4B01221A7088
:103CA000F5E700BFCC3F022054030020FEFFFF4A8F
:103CB000000000CB0000003680030020ABAAAAAAB7
:103CC00008000020D03F02208C030020CD3F0220BE
:103CD00000B585B00023019302938DF80C3001A844
:103CE00001F0FEFB01A8FFF74BFE05B05DF804FBF9
:103CF0002DE9F84305463F4B1B688B420BD23E49EA
:103D0000A1FB032121F0010202EB51029A1A12F0E9
:103D1000FF0F41D11946374A5B1A1360177901FB2F
:103D200007F4364B19680A199B689A423AD39BB23A
:103D300088B2A3EB00081FFA88F8C61A16FA84F6B0
:103D4000B6B2DFF8C09042464944284606F0BDFCB2
:103D500059F80C3C434449F80C3C47F6645202FBCA
:103D600007F7BB4239D1A9F10C0300221A605B6846
:103D70009E4202D9224BDB78ABBB224F32463946FA
:103D800005EB080006F0A1FC57F80C3C1E4447F870
:103D90000C6C2046BDE8F883FFF748FDFFF7D4FD23
:103DA0000024F6E7174E22463144284606F08DFCE3
:103DB00056F80C3C234446F80C3C134A934207D077
:103DC000114A9342E5D9FFF731FDFFF7BDFDE0E76A
:103DD000A6F10C0300221A60DBE7FFF727FDFFF7CF
:103DE000B3FD0024D5E7FFF721FDFFF7ADFD00246B
:103DF000CFE700BF54030020ABAAAAAA800300208B
:103E0000080000208C0300202C780100014B0022C8
:103E10001A71704708000020BFF34F8F0549CA6828
:103E200002F4E062044B1343CB60BFF34F8F00BF3B
:103E3000FDE700BF00ED00E00400FA0570282AD07D
:103E400014D8402829D009D8202828D0302828D0B4
:103E5000102801D00020704701207047502822D040
:103E6000602801D00020704701207047B0281CD086
:103E700009D890281BD0A0281BD0802801D0002072
:103E8000704701207047C02815D0D02801D00020ED
:103E900070470120704701207047012070470120C2
:103EA00070470120704701207047012070470120B2
:103EB00070470120704701207047000008B5044991
:103EC000002004F093F90349002004F08FF908BDA5
:103ED00038FE02084CFE020810B501F0CDF9044688
:103EE00001F0CEF90146204604F01CF810BD000098
:103EF00010B582B0124B5B782BB11249002004F050
:103F000075F902B010BD04460F49002004F06EF9A7
:103F10000E49002004F06AF90D49002004F066F90A
:103F2000074BDB784BB9012200230093214604485C
:103F300090F86E0001F016F8E3E70522F4E700BF01
:103F40000800002054FE020878FE020890FE0208D5
:103F50004CFE020830B595B004462D4B5B7823BB70
:103F60002C49002004F042F92B49002004F03EF9CE
:103F700001F086F90C280AD0284A2949002004F0CB
:103F800035F92849002004F031F915B030BD00237F
:103F90000093012221461E4890F86E0000F0E2FFD7
:103FA000C820FDF7DFF8FFF737FF1F49002004F0B6
:103FB0001DF91E49062004F019F901F061F90C28D9
:103FC00005D0164A1A49002004F010F9DDE701F087
:103FD00053F9054602A803F00DF80C2229460DF10D
:103FE0000F0006F0E3FA20B11249002004F0FEF8B9
:103FF000CBE70023009301222146054890F86E008C
:1040000000F0B0FFC820FDF7ADF8FFF705FF00BFD7
:104010000800002078FE0208A0FE0208C8C80208B6
:10402000A8FE0208D4FE0208DCFE0208F0FE020828
:1040300004FF020830FF020830B595B00446434B38
:104040005B78002B3BD14249002004F0CFF8414976
:10405000002004F0CBF801F013F90D2806D03E4AF9
:104060003E49002004F0C2F815B030BD01F004F95B
:10407000054602A802F0BEFF2A7B8DF80E203849C3
:10408000002004F0B3F802A802F0FAFE48B10023C1
:104090000093012221462D4890F86E0000F062FF47
:1040A000E2E73049002004F0A1F800230093022247
:1040B0002146264890F86E0000F054FFD4E72A49C4
:1040C000002004F093F82349002004F08FF801F059
:1040D000D7F80D2805D0204A2049002004F086F8A2
:1040E000C2E701F0C9F8054602A802F083FF0C22DE
:1040F00029460DF10F0006F059FA08BB2A7B8DF80E
:104100000E20174904F072F802A802F0B9FE48B177
:1041100000230093012221460C4890F86E0000F025
:1041200021FFA1E70F49002004F060F8002300936D
:1041300002222146054890F86E0000F013FF93E735
:104140000A49002004F052F88EE700BF0800002062
:1041500078FE02084CFF0208D8C8020858FF02087F
:1041600084FF02089CFF0208DCFE020830FF020800
:1041700070B59AB00446A04B5B78002B40F0BE802F
:104180009E49002004F032F89D49002004F02EF8EA
:1041900001F076F80D2805D09A4A9B49002004F0DA
:1041A00025F840E001F068F8054608A802F022FF73
:1041B000287B8DF83300FFF741FE002800F098803F
:1041C00008A802F05DFE9DF826209049002004F02A
:1041D0000DF80023039304930593069307939DF82A
:1041E0003330802B63D02AD8402B54D01DD8202BBD
:1041F0003FD0302B46D0102B74D1854A03AB07CA71
:1042000003C323F8022B120C1A7003AA8149002061
:1042100003F0ECFF0122002300932146764890F83A
:104220006E0000F09FFE1AB070BD602B39D0702B6D
:1042300058D103AB784A07CA83E80700E5E7B02BFB
:1042400041D009D9C02B47D0D02B4BD103AB734AF7
:1042500007CA83E80700D8E7902B2ED0A02B41D1C6
:104260006F4A03AB07CA03C323F8022B120C1A7060
:10427000CBE76C4A03AB07CA03C323F8022B120C2B
:104280001A70C2E7684A03AB07CA03C323F8022BBC
:10429000120C1A70B9E703AB644A07CA83E8070037
:1042A000B3E703AB624A07CA83E80700ADE703AB95
:1042B000604A07CA83E80700A7E703AB5E4A07CA5C
:1042C00083E80700A1E75D4A03AB07CA03C323F8ED
:1042D000022B120C1A7098E703AB594A07CA83E8FD
:1042E000070092E7574A03AB07CA03C31A808CE75B
:1042F0005549002003F07AFF02228CE75349002041
:1043000003F074FF3E49002003F070FF00F0B8FF97
:104310000D2805D03B4A3C49002003F067FF82E7A7
:1043200000F0AAFF054608A802F064FE2E7B8DF877
:1043300033600C2229460DF1270006F037F90028DA
:1043400040F0DE803046FFF779FD002800F0D28093
:1043500008A802F095FD9DF826202C49002003F0C6
:1043600045FF0023039304930593069307939DF859
:104370003330702B00F0948012D9B02B00F0A58060
:1043800066D8902B00F09280A02B00F09580802BB7
:1043900040F0AA8003AB274A07CA83E8070011E070
:1043A000402B71D01DD8202B5CD0302B63D0102B2C
:1043B00040F09A80164A03AB07CA03C323F8022BC6
:1043C000120C1A7003AA1349002003F00FFF0122F8
:1043D000002300932146084890F86E0000F0C2FDCB
:1043E00021E7502B56D0602B7ED103AB104A07CA71
:1043F00083E80700E6E700BF0800002078FE020817
:10440000B8FF0208E8C8020804FF020884FF020897
:10441000C4FF020860000308000003084800030806
:1044200024000308D0FF0208DCFF0208E8FF0208AE
:10443000F4FF02080C00030818000308300003080A
:104440003C0003085400030878000308DCFE02085F
:10445000C02B43D0D02B47D103AB2C4A07CA83E8EB
:104460000700AFE72A4A03AB07CA03C323F8022BAE
:10447000120C1A70A6E7274A03AB07CA03C323F836
:10448000022B120C1A709DE703AB234A07CA83E87C
:10449000070097E703AB214A07CA83E8070091E7C3
:1044A00003AB1F4A07CA83E807008BE703AB1D4A2B
:1044B00007CA83E8070085E71B4A03AB07CA03C3A3
:1044C00023F8022B120C1A707CE7184A03AB07CAB8
:1044D00003C323F8022B120C1A7073E703AB144AC0
:1044E00007CA83E807006DE7124A03AB07CA03C394
:1044F0001A8067E71049002003F078FE022267E780
:104500000E49002003F072FE8DE600BF480003084C
:10451000D0FF0208DCFF0208E8FF0208940003084D
:1045200000000308180003082400030830000308F3
:104530003C000308540003087800030830FF020819
:10454000F0B5A7B00746AF49002003F04FFE00F0DA
:1045500093FE054600F094FEC4B2AB49002003F080
:1045600045FE14A802F046FD14A802F051FDA7492B
:10457000002003F03BFE002300E001339C42FCDC02
:10458000A34B5B78002B40F08A80A249002003F007
:104590002DFEA149002003F029FE3C2C4CD0242CF8
:1045A00051D19E4A9E49002003F020FE01222B7B20
:1045B0008DF865306B7B8DF86630AB7B8DF867309E
:1045C000EB7B8DF868302B7C8DF869306B7C8DF837
:1045D0006A30AB7C8DF86B30EB7C8DF86C302B7DCA
:1045E0008DF86D306B7D8DF86E30AB7D8DF86F3052
:1045F000EB7D8DF87030032A2BD0AB69CDF871308C
:10460000EB69CDF875302B6ACDF8793014A802F03B
:1046100037FC04468349002003F0E8FD14A802F0AB
:10462000F7FC94B30023009301223946784890F8B0
:104630006E0000F097FCE3E0784A7B49002003F02D
:10464000D5FD0322B3E7754A7849002003F0CEFD7B
:10465000D6E0AB69CDF87130EB69CDF875302B6AD7
:10466000CDF879306B6ACDF87D30AB6ACDF881300A
:10467000EB6ACDF885302B6BCDF889306B6BCDF8BC
:104680008D30AB6BCDF89130C0E700230093022250
:1046900039465F4890F86E0000F064FCB0E0644971
:1046A000002003F0A3FD0C2229460DF1570005F070
:1046B0007DFF0646002840F09F805E4903F096FD8E
:1046C0005249002003F092FD00E00136B442FCDCC8
:1046D0005049002003F08AFD4F49002003F086FD79
:1046E0003C2C56D0242C5BD14C4A4D49002003F081
:1046F0007DFD01244449002003F078FD02A802F06A
:1047000079FC02A802F084FC2B7B8DF81D306B7BBA
:104710008DF81E30AB7B8DF81F30EB7B8DF8203091
:104720002B7C8DF821306B7C8DF82230AB7C8DF8A2
:104730002330EB7C8DF824302B7D8DF825306B7D7C
:104740008DF82630AB7D8DF82730EB7D8DF8283045
:10475000032C2BD0AB69CDF82930EB69CDF82D3087
:104760002B6ACDF8313002A802F08AFB04462D49AD
:10477000002003F03BFD02A802F04AFC94B30023A2
:10478000009301223946224890F86E0000F0EAFBBF
:1047900036E0224A2449002003F028FD0324A9E73B
:1047A0001E4A2249002003F021FD29E0AB69CDF823
:1047B0002930EB69CDF82D302B6ACDF831306B6A9A
:1047C000CDF83530AB6ACDF83930EB6ACDF83D30F5
:1047D0002B6BCDF841306B6BCDF84530AB6BCDF822
:1047E0004930C0E70023009302223946084890F878
:1047F0006E0000F0B7FB03E00F49002003F0F6FC69
:1048000027B0F0BDA0000308B4000308D0000308DF
:104810000800002078FE0208EC000308FCC802082B
:104820001C0103085C010308FC0003083C010308A9
:10483000DCFE02088001030830FF020870B5ACB04E
:10484000054600F019FD04468249002003F0CEFC25
:104850001AA802F0CFFB804B5B78002B00F084801D
:104860007E49002003F0C2FC7D49002003F0BEFC1D
:104870000C2221460DF16F0005F098FE00286ED144
:10488000764903F0B3FC7649002003F0AFFC5F26C5
:104890003246002102A805F099FE6F4C02ABD4F815
:1048A0006F00D4F87310D4F8772007C3DDF87D00CB
:1048B000DDF88110DDF8852007C394F87B308DF892
:1048C0002030236ACDF82130A38CADF8253094F840
:1048D00026308DF8273094F827308DF8283094F85A
:1048E00028308DF8293094F829308DF82A30E36A81
:1048F000CDF82B30236BCDF82F30636BCDF83330F0
:10490000A36BCDF83730E36BCDF83B30236CCDF89B
:104910003F30636CCDF84330A36CCDF84730E36C87
:10492000CDF84B30236DCDF84F30636DCDF853305B
:10493000A36DCDF85730E36DCDF85B30236ECDF825
:104940005F30636ECDF86330009602AB01222946DA
:1049500094F86E0000F006FBFEF7F6FF77E04149A1
:10496000002003F043FC72E03C49002003F03EFCD1
:104970003B49002003F03AFC374C02ABD4F86F00FF
:10498000D4F87310D4F8772007C3DDF87D00DDF884
:104990008110DDF8852007C394F87B308DF8203036
:1049A000236ACDF82130A38CADF8253094F8263059
:1049B0008DF8273094F827308DF8283094F8283077
:1049C0008DF8293094F829308DF82A30DDF88930B7
:1049D000CDF82B30DDF88D30CDF82F30636BCDF86E
:1049E0003330A36BCDF83730DDF89130CDF83B3064
:1049F000DDF89530CDF83F30DDF89930CDF8433013
:104A0000A36CCDF84730E36CCDF84B30DDF89D302A
:104A1000CDF84F30DDF8A130CDF85330DDF8A530BA
:104A2000CDF85730E36DCDF85B30236ECDF85F30B5
:104A3000DDF8A930CDF863305F23009302AB01228B
:104A4000294694F86E0000F08DFAFEF77DFF2CB039
:104A500070BD00BFB40003080800002078FE020803
:104A600094010308B401030810B582B0124B5B78BF
:104A70002BB11249002003F0B9FB02B010BD04466F
:104A80000F49002003F0B2FB0E49002003F0AEFBFB
:104A9000FEF75AFF084B9B784BB10023009301228D
:104AA0002146054890F86E0000F05CFAE5E70649FB
:104AB000002003F09BFBE0E70800002054FE020802
:104AC00078FE0208D0010308E4010308244B5B7858
:104AD00003B1704770B582B0044600F0D1FB0228E4
:104AE00001D002B070BD002500F0C6FB038863F35F
:104AF0000F05B5F5806FF4D80DB94FF48065184BEC
:104B000093F82830012B22D0154E96F8280005EB9B
:104B10004501144B03EB8000FFF7EAF896F82830C4
:104B20009B0013FA80F5ADB23379A3B10D4B01228E
:104B30005A55FFF76BF90135ADB20095094B0122CB
:104B40002146074890F86E0000F00CFAC9E70548C6
:104B500001F084FAD8E7034B00225A55E9E700BF79
:104B6000080000202CF9012070B59AB02A4B5B7820
:104B70002BB12A49002003F039FB1AB070BD04465E
:104B800000F07EFB002841D1254A264903F02EFB88
:104B9000FEF744FE00F03F05234E3146002003F0AF
:104BA00025FB2A462149002003F020FB3146002046
:104BB00003F01CFB2846FCF7D5FA1D49002003F042
:104BC00015FB1C49002003F011FB1B49002003F0DA
:104BD0000DFB08A802F00EFA00F0B8FB024602AB8B
:104BE00000685168926807C3DDF83500DDF83910B8
:104BF000DDF83D2007C31823009302AB01222146B4
:104C0000054890F86E0000F0ADF9B6E7044A0B498C
:104C1000002003F0EBFAB0E70800002054FE020881
:104C200010C9020804020308240203084C02030806
:104C300078FE02086C020308B4000308800203082F
:104C400070B582B02A4B5B782BB12A49002003F063
:104C5000CDFA02B070BD06462749002003F0C6FA1F
:104C600000F00AFB0468002C38D007EE904AF8EEFA
:104C7000677ADFED226A87EEA67A1D4DAB8C07EED0
:104C8000903AF8EE677A67EE877A17EE900AFBF7AC
:104C9000E3FC41EC100B07F08BFD51EC100BFCF723
:104CA0000BF8044602461649002003F09FFAFEF76F
:104CB00031FE04EB4403AB60AB78A3B10023009357
:104CC0000122314695F86E0000F04CF9084B9B68C4
:104CD00022460C49002003F089FABAE70A4900206D
:104CE00003F084FAC1E70949002003F07FFAEDE7F9
:104CF0000800002054FE020878FE020800007A44F2
:104D0000C002030800030308A8020308E002030826
:104D100010B5444B00225A7001229A7000F0BEFA7E
:104D2000212806D900F0BAFA232802D03D4BDB78BF
:104D3000D3B900F0B3FA044600F0AAFA50BB122C23
:104D400017D0384B01225A703749002003F04EFA31
:104D500000230C2B1DD8354A02EBC30292F85C00ED
:104D6000A04211D00133F4E73149002003F03EFAAC
:104D70000FE000F08DFA2B4B93F86E309842E0D1A3
:104D80002046FFF7F1FE04E0284A02EBC3031B6E46
:104D9000984710BD00F07CFAFF281BD1214B002260
:104DA0009A70012C06D0022C0CD02249002003F06E
:104DB0001DFAEEE72049104603F018FA2046FFF7E7
:104DC0003FFFE6E71D49002003F010FA2046FFF7F9
:104DD0004BFEDEE700F05CFA124B93F86E3098421F
:104DE0001AD12F2C0DD0252C0BD000230C2BD0D872
:104DF0000E4A02EBC30292F85C00A04206D00133D7
:104E0000F4E70F49002003F0F1F9C2E7074A02EB8B
:104E1000C3031B6E9847BCE70A49062003F0E6F976
:104E2000B7E700BF080000206C030308C8C80208E9
:104E300030030308F00303088C030308C0030308CE
:104E4000400403086404030830B595B0044602A882
:104E500002F0D0F8244B1B78002B3BD1224B0122CF
:104E60001A7030238DF81B300025204B9D7100F007
:104E7000FBFE00952B462A4621461D4890F86E0001
:104E800000F070F8184C23788DF81C3002A801F05F
:104E9000F7FF207803F09AF902461649002003F044
:104EA000A5F99DF80E20124B83F86E20DDF80F0057
:104EB000DDF81310DDF81720C3F86F00C3F8731086
:104EC000C3F877209DF81B2083F87B20FEF7C4FCF5
:104ED00015B030BD044B00221A70D0238DF81B3062
:104EE00002F000FDCEE700BFCC3F02200001002011
:104EF000080000208004030808B500F09FF902288C
:104F000000D008BDFFF704FFFBE7000008B5084B21
:104F100093F82830012B07D0FEF778FF05490020D1
:104F200003F064F9044808BD034801F097F8F3E77B
:104F3000080000209C0403082CF901204FF4806035
:104F40007047000008B5024B1B6803B1984708BDC5
:104F5000301D022008B5024B5B6803B1984708BDBD
:104F6000301D0220F0B589B0BDF838508DF807002B
:104F70008DF806108DF805201E46002B68D0384BA2
:104F80009B68002B6AD005F10903ADF81C300222A2
:104F900007A9002000F088F9ADF81A0001220DF1F0
:104FA000070100F081F9ADF81A0001220DF10601A8
:104FB00000F07AF9ADF81A0001220DF1050100F0B8
:104FC00073F9ADF81A00ADF81E0002220DF11E01B2
:104FD00000F06AF9ADF81A002A46314600F064F98B
:104FE000ADF81A001F4B0393BDF81C30ADF810301C
:104FF0009DF807308DF812309DF806308DF813308B
:105000009DF805308DF81430BDF81E308DF8153040
:105010001B0A8DF81630FFF795FF114FBB680B2167
:1050200003A898470446BB6829463046984704447D
:10503000A4B2BB6802210DF11A0098470444A4B23F
:10504000FFF788FF0D35AC4206D0002009B0F0BD57
:10505000002D94D00020F9E70120F7E70020F5E7C4
:10506000301D0220AAAAAAA510B5044602220146B4
:10507000002000F019F90122A11C00F015F901220D
:10508000E11C00F011F90122211D00F00DF90222AE
:10509000A11D00F009F9214631F8082B093A92B216
:1050A00000F002F910BD0000524B9B8940F22A32F9
:1050B00093420CD810B5032B13D8022B0BD9032B1A
:1050C0002BD1A52829D000204A4B98812AE0002026
:1050D000484B98817047AA281FD00020454B9881E3
:1050E00020E0042B17D0052B1DD0062B21D0072B39
:1050F00022D0082B23D0092B34D00A2B35D00A2BF1
:1051000053D93C4A128A511C994252DB0B3B394A13
:105110001344187601E0374B1882364A93890133DD
:105120009381012010BD334A138A43EA002313827E
:10513000F3E7304B9874F0E72E4BD874EDE72D4B26
:105140001875DB7C112BE8D12A4B9A7C2A4B93F8FB
:105150006E309A42E1D00028DFD0264B00229A819F
:105160000420DFE7234BD882D7E7224CE38A43EAC7
:105170000023E382022204F11001002000F094F8E1
:10518000012204F1120100F08FF8012204F1130151
:1051900000F08AF8012204F1140100F085F8E38A96
:1051A0008342BAD00020A081BCE70020114B988137
:1051B000B8E7911C8B4214D003329342ADD10D4B12
:1051C000B3F8384304EB0024A4B2A3F83843002218
:1051D0009A8103F11000FFF747FF844205D00320B6
:1051E000A0E7044BA3F8380397E700F057FA022032
:1051F00098E700BF301D02200800002008B5084BCA
:10520000084AC3F83C23084A9A60084AC3F8402376
:10521000074A1A60074A5A60074802F0A5FE08BD0F
:10522000301D0220255E0208ED5C0208A55D020823
:105230000D5D0208455D0208654F020810B582B099
:105240000C4BD3F840338BB101240A4BD3F84033D5
:105250000DF10700984750B19DF80700FFF724FFB4
:1052600004460428F1D100F095FDEEE70124204624
:1052700002B010BD301D022000487047481D0220BA
:10528000024B188A093880B2704700BF301D0220D7
:10529000014B987C704700BF301D0220014BD87C29
:1052A000704700BF301D0220531E9BB292B110B454
:1052B00011F8012B82EA1022074C34F81220000268
:1052C00080B250401A46013B9BB2002AF0D15DF8F3
:1052D000044B7047704700BF8CC9020810B5864662
:1052E0008446064C0FCCACE80F000FCCACE80F00A6
:1052F0002368CCF80030704610BD00BF7420022037
:1053000010B58AB0044603AB02AA01A901F046F821
:1053100006AB05AA04A904F57A5001F03FF809ABE1
:1053200008AA07A904F5FA4001F038F8064C0DF177
:10533000040CBCE80F000FC4BCE80F000FC4DCF87D
:10534000003023600AB010BD7420022010B592B066
:10535000684601F04FFE064C2346DDF80700DDF8F5
:105360000B10DDF80F2007C3204612B010BD00BFA0
:105370009820022010B586B08DF8070000248DF823
:105380001740C3B25B00DBB28DF8073043F0010376
:105390008DF80730224610211648FCF7ADFE049424
:1053A000049402E0049B01330493049B012BF9DD78
:1053B000642301220DF107010F48FDF7A3FA002332
:1053C0000393039302E0039B01330393039B012B9D
:1053D000F9DD642301220DF117010748FDF789FC6F
:1053E000012210210348FCF787FE9DF8170006B044
:1053F00010BD00BF00000240FC24022010B584B0A4
:105400000C468DF80700C3B25B00DBB28DF80730A5
:1054100043F001038DF80730002210211548FCF7F6
:105420006BFE00230393039302E0039B013303937A
:10543000039B012BF9DD642301220DF107010E48C6
:10544000FDF760FA00230293029302E0029B01330E
:105450000293029B012BF9DD6423092221460648B1
:10546000FDF747FC012210210248FCF745FE04B07D
:1054700010BD00BF00000240FC24022010B584B023
:105480005A238DF80C3000248DF80D40224610214F
:105490001148FCF731FE0294029402E0029B0133B2
:1054A0000293029B132BF9DD6423022203A90B480C
:1054B000FDF728FA00230193019302E0019B0133D9
:1054C0000193019B132BF9DD012210210248FCF707
:1054D00013FE04B010BD00BF00000240FC240220F7
:1054E00008B501460820FFF789FF08BD10B501285F
:1054F00012D0022802D0E8B100200CE00820FFF70B
:1055000039FF04040920FFF735FF04EB00240A20CB
:10551000FFF730FF204410BD0B20FFF72BFF0404E2
:105520000C20FFF727FF04EB00240D20FFF722FFDC
:105530002044F0E70E20FFF71DFF04040F20FFF7C3
:1055400019FF04EB00241020FFF714FF2044E2E7CA
:10555000702825D00BD9B02835D01BD8902834D04E
:10556000A02835D0802836D14FF416407047402807
:1055700019D008D8202819D030281AD010281BD1CB
:105580004FF496507047502818D0602819D14FF426
:10559000E1407047C02801D010487047104870475C
:1055A00048F2403070474FF4615070474FF4E1507B
:1055B00070474FF416507047084870474FF49640B4
:1055C000704706487047074870474FF4614070477E
:1055D0004FF4E13070470148704700BF60E31600A8
:1055E00040420F0020A1070008B56420FBF7BAFD78
:1055F00000F05EF8F9E7000000B595B03422002114
:1056000007A804F0E3FF0023029303930493059398
:10561000069300931F4A116C41F080511164126C83
:1056200002F080520092009A01931B4B1A6842F4D8
:1056300040421A601B6803F440430193019B01231D
:1056400007934FF48033089302230D934FF48002A5
:105650000E9206220F9250221092119312931393DE
:1056600007A8FCF781FE88B90F2302930223039356
:10567000002304934FF4805205920693032102A85D
:10568000FCF79EFD20B915B05DF804FBFFF7ACFFF9
:10569000FFF7AAFF003802400070004008B54FF441
:1056A00080710248FCF72EFD08BD00BF00040240D7
:1056B00008B54FF400710248FCF724FD08BD00BF97
:1056C00000040240F0B589B00024039404940594CA
:1056D000069407940094264B1A6B42F001021A6359
:1056E0001A6B02F001020092009A01941A6B42F0C8
:1056F00002021A631A6B02F002020192019A0294EA
:105700001A6B42F080021A631B6B03F08003029352
:10571000029B184F22464FF440713846FCF7ECFCD0
:10572000154D012210212846FCF7E6FC4FF4B85332
:105730000393012604960594069403A93846FCF7C2
:10574000F9FB10230393049605940324069403A9FC
:105750002846FCF7EFFB08230393084B049302232E
:105760000593069403A92846FCF7E4FB09B0F0BDB5
:105770000038024000040240000002400000111006
:1057800008B5FEF7A5FA044B08225A614FF40071E0
:105790000248FCF7B7FC08BD003C01400004024091
:1057A00000B503885A1CB0F806C092FBFCFE0CFB47
:1057B0001E2292B2B0F802E072450FD08268013327
:1057C0009BB20380B3FBFCFE0CFB1E339BB2D15497
:1057D00083880133838001205DF804FB4FF0FF30A4
:1057E000FAE7000010B582B00268D36823F0200306
:1057F000D3600268D36823F48073D360026853696E
:1058000023F00103536100230193174A13681968B9
:1058100001915968019101995B681364134B1B78DE
:105820008BB1012B15D1FBF797FC0F4B5B6CC01AAA
:10583000042816D80C4C206CC0B202F013F8FBF709
:105840008BFC606405E0084B196CC9B20848FFF78F
:10585000A7FF054B1A68D36843F02003D36002B05A
:1058600010BD02F03FF8E5E7B0200220CC3F022057
:10587000B800002010B588B0002403940494059467
:10588000069407940194164B5A6C42F010025A6425
:105890005A6C02F010020192019A02941A6B42F0C3
:1058A00001021A631B6B03F001030293029B4FF486
:1058B000C0630393022304930123059303230693F8
:1058C0000723079303A90748FCF734FB2246214628
:1058D0002520FBF7A5FF2520FBF7B2FF08B010BD80
:1058E00000380240000002402DE9F0410446026801
:1058F000136923F44053C1680B4313618368026941
:105900001A4343691A43C3691A430168CB6823F4F5
:10591000164323F00C031343CB600268536923F44E
:10592000407381690B435361C369B3F5004F5ED087
:105930000368B54A934200F0108102F580629342F9
:1059400000F00B81FCF7F0FC00EB800000EB800026
:1059500063689B00B0FBF3F5AC4FA7FB05356D0901
:105960002E01FCF7E1FC00EB800000EB8000636897
:105970009B00B0FBF3F5FCF7D7FC00EB800000EBDD
:10598000800063689B00B0FBF3F0A7FB0030400988
:105990004FF0640808FB10531B013233A7FB0323AD
:1059A0005B0903F0F003F518FCF7BEFC00EB800088
:1059B00000EB800063689B00B0FBF3F6FCF7B4FCDF
:1059C00000EB800000EB800063689B00B0FBF3F00D
:1059D000A7FB0030400908FB10631B013233A7FB13
:1059E0000373C3F3431322681D44956009E1036800
:1059F000854A93425AD002F58062934256D0FCF712
:105A000093FC00EB800000EB800863685B00B8FB50
:105A1000F3F87E4EA6FB08384FEA58184FEA0818EC
:105A2000FCF782FC00EB800000EB800063685B0009
:105A3000B0FBF3F5FCF778FC00EB800000EB800096
:105A400063685B00B0FBF3F3A6FB03235B096427E9
:105A500007FB1355ED003235A6FB05356D096D00CA
:105A600005F4F8754544FCF75FFC00EB800000EBA3
:105A7000800063685B00B0FBF3F8FCF755FC00EBBB
:105A8000800000EB800063685B00B0FBF3F3A6FBD3
:105A900003235B0907FB1383DB003233A6FB03639D
:105AA000C3F3421322681D449560AAE0FCF74CFC46
:105AB00000EB800000EB800063685B00B0FBF3F854
:105AC000524EA6FB08384FEA58184FEA0818FCF760
:105AD0003BFC00EB800000EB800063685B00B0FBE8
