:020000040802F0
:1000000000000520758602084D850208518502080A
:1000100055850208598502085D8502080000000028
:1000200000000000000000000000000061850208E0
:100030006585020800000000698502086D850208D8
:10004000C5860208C5860208C5860208C58602085C
:10005000C5860208C5860208C5860208C58602084C
:10006000C58602080D560208C5860208C586020824
:10007000C5820208C5860208C5860208C586020830
:10008000C5860208C58602082D5E0208C5860208DC
:10009000C5860208C5860208C5860208C58602080C
:1000A00045600208D95F0208C5860208C5860208B5
:1000B000C5860208C5860208C5860208C5860208EC
:1000C000C5860208C5860208C5860208095D0208C1
:1000D000C5860208BD570208C5860208C586020803
:1000E000C5860208C5860208C5860208C5860208BC
:1000F000C5860208C5860208C5860208C5860208AC
:10010000C5860208C5860208C5860208C58602089B
:10011000C5860208C5860208C5860208296002084D
:10012000C5860208C5860208C5860208C58602087B
:10013000C5860208C5860208C5860208C58602086B
:10014000C5860208C5860208C5860208C58602085B
:10015000C5860208C5860208C5860208C58602084B
:10016000C5860208C5860208C5860208C58602083B
:10017000C5860208C58602080000000000000000D5
:10018000C5860208C5860208B9820208C58602082B
:10019000C5860208C586020800000000C586020860
:1001A000C5860208C58602080000000000000000A5
:1001B000C58602080000000000000000C586020895
:1001C000C5860208C5860208C5860208C5860208DB
:0801D000C5860208C58602087D
:1001E00010B5054C237833B9044B13B10448AFF371
:1001F00000800123237010BD90010020000000004A
:10020000C0AC020808B5034B1BB103490348AFF368
:10021000008008BD0000000094010020C0AC02086E
:100220004B1C012B98BF70472DE9F003911C9B08D4
:10023000B1F80480B1F802900A8831F802CC804409
:10024000814402448444D9F80070D8F800601568ED
:10025000DCF80040C9F80060C8F80070CCF8005025
:100260001460D9F80470D8F804605568DCF80440CC
:10027000C9F80460C8F80470CCF804505460083120
:10028000013BD5D1BDE8F00370474B1C012B98BF53
:1002900070472DE9F003911C9B08B1F80480B1F878
:1002A00002900A8831F802CC00EB580800EB59099B
:1002B00000EB520200EB5C0CD9F80070D8F800603B
:1002C0001568DCF80040C9F80060C8F80070CCF888
:1002D000005014600831013BDFD1BDE8F0037047E6
:1002E000034613F8012B002AFBD1181A0138704776
:1002F00001F0FF01102A2BDB10F0070F08D010F8D7
:10030000013B013A8B422DD010F0070F42B3F6D1DA
:10031000F0B441EA012141EA014122F007047FF0F3
:1003200000070023F0E80256083C85EA010586EA4A
:10033000010685FA47F5A3FA87F586FA47F6A5FA86
:1003400087F68EB9EED1F0BC01F0FF0102F0070292
:1003500032B110F8013B013A83EA010313B1F8D13D
:100360000020704701387047002D06BF354603381E
:10037000073815F0010F07D1013015F4807F02BF57
:10038000013015F4C03F0130F0BC0138704700BFA8
:1003900081F0004102E000BF83F0004330B54FEA36
:1003A00041044FEA430594EA050F08BF90EA020FA3
:1003B0001FBF54EA000C55EA020C7FEA645C7FEA36
:1003C000655C00F0E2804FEA5454D4EB5555B8BF59
:1003D0006D420CDD2C4480EA020281EA030382EACA
:1003E000000083EA010180EA020281EA0303362D5C
:1003F00088BF30BD11F0004F4FEA01314FF4801C2F
:100400004CEA113102D0404261EB410113F0004F40
:100410004FEA03334CEA133302D0524263EB4303F7
:1004200094EA050F00F0A780A4F10104D5F1200E95
:100430000DDB02FA0EFC22FA05F2801841F10001F0
:1004400003FA0EF2801843FA05F359410EE0A5F1C4
:1004500020050EF1200E012A03FA0EFC28BF4CF0F5
:10046000020C43FA05F3C01851EBE37101F00045AB
:1004700007D54FF0000EDCF1000C7EEB00006EEBB8
:100480000101B1F5801F1BD3B1F5001F0CD3490842
:100490005FEA30004FEA3C0C04F101044FEA445299
:1004A00012F5800F80F09A80BCF1004F08BF5FEA20
:1004B000500C50F1000041EB045141EA050130BD00
:1004C0005FEA4C0C404141EB0101013C28BFB1F512
:1004D000801FE9D291F0000F04BF01460020B1FA5D
:1004E00081F308BF2033A3F10B03B3F120020CDA30
:1004F0000C3208DD02F1140CC2F10C0201FA0CF00E
:1005000021FA02F10CE002F11402D8BFC2F1200C72
:1005100001FA02F120FA0CFCDCBF41EA0C01904028
:10052000E41AA2BF01EB0451294330BD6FEA040471
:100530001F3C1CDA0C340EDC04F11404C4F120025C
:1005400020FA04F001FA02F340EA030021FA04F36E
:1005500045EA030130BDC4F10C04C4F1200220FAC5
:1005600002F001FA04F340EA0300294630BD21FA03
:1005700004F0294630BD94F0000F83F4801306BFC9
:1005800081F480110134013D4EE77FEA645C18BFBD
:100590007FEA655C29D094EA050F08BF90EA020F54
:1005A00005D054EA000C04BF1946104630BD91EA4C
:1005B000030F1EBF0021002030BD5FEA545C05D14F
:1005C0004000494128BF41F0004130BD14F580048E
:1005D0003CBF01F5801130BD01F0004545F0FE4102
:1005E00041F470014FF0000030BD7FEA645C1ABF37
:1005F000194610467FEA655C1CBF0B46024650EA6E
:10060000013406BF52EA033591EA030F41F4002199
:1006100030BD00BF90F0000F04BF0021704730B51F
:100620004FF4806404F132044FF000054FF00001F4
:1006300050E700BF90F0000F04BF0021704730B5B5
:100640004FF4806404F1320410F0004548BF40428A
:100650004FF000013EE700BF42004FEAE2014FEADF
:1006600031014FEA02701FBF12F07F4393F07F4FBA
:1006700081F06051704732F07F4208BF704793F0BD
:100680007F4F04BF41F40021704730B54FF46074D0
:1006900001F0004521F000411CE700BF50EA0102D3
:1006A00008BF704730B54FF000050AE050EA01027C
:1006B00008BF704730B511F0004502D5404261EBEC
:1006C00041014FF4806404F132045FEA915C3FF42D
:1006D000D8AE4FF003025FEADC0C18BF03325FEACA
:1006E000DC0C18BF033202EBDC02C2F1200300FA7B
:1006F00003FC20FA02F001FA03FE40EA0E0021FAA0
:1007000002F11444BDE600BF70B54FF0FF0C4CF48D
:10071000E06C1CEA11541DBF1CEA135594EA0C0F3F
:1007200095EA0C0F00F0DEF82C4481EA030621EA7A
:100730004C5123EA4C5350EA013518BF52EA0335B5
:1007400041F4801143F4801338D0A0FB02CE4FF067
:100750000005E1FB02E506F00042E0FB03E54FF097
:100760000006E1FB03569CF0000F18BF4EF0010E8F
:10077000A4F1FF04B6F5007F64F5407404D25FEA8B
:100780004E0E6D4146EB060642EAC62141EA55513E
:100790004FEAC52040EA5E504FEACE2EB4F1FD0C80
:1007A00088BFBCF5E06F1ED8BEF1004F08BF5FEAFE
:1007B000500E50F1000041EB045170BD06F00046B0
:1007C00046EA010140EA020081EA0301B4EB5C045D
:1007D000C2BFD4EB0C0541EA045170BD41F4801155
:1007E0004FF0000E013C00F3AB8014F1360FDEBF7A
:1007F000002001F0004170BDC4F10004203C35DA56
:100800000C341BDC04F11404C4F1200500FA05F3D8
:1008100020FA04F001FA05F240EA020001F0004279
:1008200021F0004110EBD37021FA04F642EB0601EF
:100830005EEA430E08BF20EAD37070BDC4F10C0419
:10084000C4F1200500FA04F320FA05F001FA04F2DD
:1008500040EA020001F0004110EBD37041F10001C9
:100860005EEA430E08BF20EAD37070BDC4F12005D4
:1008700000FA05F24EEA020E20FA04F301FA05F23C
:1008800043EA020321FA04F001F0004121FA04F2E4
:1008900020EA020000EBD3705EEA430E08BF20EAB4
:1008A000D37070BD94F0000F0FD101F000464000EE
:1008B00041EB010111F4801F08BF013CF7D041EA70
:1008C000060195F0000F18BF704703F00046520074
:1008D00043EB030313F4801F08BF013DF7D043EA45
:1008E0000603704794EA0C0F0CEA135518BF95EAFB
:1008F0000C0F0CD050EA410618BF52EA4306D1D182
:1009000081EA030101F000414FF0000070BD50EAA0
:10091000410606BF1046194652EA430619D094EA2A
:100920000C0F02D150EA013613D195EA0C0F05D114
:1009300052EA03361CBF104619460AD181EA030168
:1009400001F0004141F0FE4141F470014FF0000020
:1009500070BD41F0FE4141F4780170BD70B54FF0BB
:10096000FF0C4CF4E06C1CEA11541DBF1CEA13553B
:1009700094EA0C0F95EA0C0F00F0A7F8A4EB05041D
:1009800081EA030E52EA03354FEA013100F0888014
:100990004FEA03334FF0805545EA131343EA1263DD
:1009A0004FEA022245EA111545EA10654FEA002692
:1009B0000EF000419D4208BF964244F1FD0404F54B
:1009C000407402D25B084FEA3202B61A65EB0305A7
:1009D0005B084FEA32024FF480104FF4002CB6EB64
:1009E000020E75EB030E22BFB61A754640EA0C00E4
:1009F0005B084FEA3202B6EB020E75EB030E22BF24
:100A0000B61A754640EA5C005B084FEA3202B6EB64
:100A1000020E75EB030E22BFB61A754640EA9C0023
:100A20005B084FEA3202B6EB020E75EB030E22BFF3
:100A3000B61A754640EADC0055EA060E18D04FEAB1
:100A4000051545EA16754FEA06164FEAC30343EA51
:100A500052734FEAC2025FEA1C1CC0D111F4801F1E
:100A60000BD141EA00014FF000004FF0004CB6E717
:100A700011F4801F04BF01430020B4F1FD0C88BFB6
:100A8000BCF5E06F3FF6AFAEB5EB030C04BFB6EBC1
:100A9000020C5FEA500C50F1000041EB045170BDB4
:100AA0000EF0004E4EEA113114EB5C04C2BFD4EBE1
:100AB0000C0541EA045170BD41F480114FF0000E65
:100AC000013C90E645EA060E8DE60CEA135594EAE1
:100AD0000C0F08BF95EA0C0F3FF43BAF94EA0C0FE4
:100AE0000AD150EA01347FF434AF95EA0C0F7FF459
:100AF00025AF104619462CE795EA0C0F06D152EAAD
:100B000003353FF4FDAE1046194622E750EA410690
:100B100018BF52EA43067FF4C5AE50EA41047FF4A1
:100B20000DAF52EA43057FF4EBAE12E74FF0FF3C06
:100B300006E000BF4FF0010C02E000BF4FF0010CD7
:100B40004DF804CD4FEA410C7FEA6C5C4FEA430C50
:100B500018BF7FEA6C5C1BD001B050EA410C0CBF9F
:100B600052EA430C91EA030F02BF90EA020F002001
:100B7000704710F1000F91EA030F58BF994208BF68
:100B800090422CBFD8176FEAE37040F00100704725
:100B90004FEA410C7FEA6C5C02D150EA013C07D17C
:100BA0004FEA430C7FEA6C5CD6D152EA033CD3D0C7
:100BB0005DF8040B704700BF8446104662468C46C1
:100BC0001946634600E000BF01B5FFF7B7FF0028F4
:100BD00048BF10F1000F01BD4DF808EDFFF7F4FF1D
:100BE0000CBF012000205DF808FB00BF4DF808EDA8
:100BF000FFF7EAFF34BF012000205DF808FB00BFCB
:100C00004DF808EDFFF7E0FF94BF012000205DF8EC
:100C100008FB00BF4DF808EDFFF7CEFF94BF0120A1
:100C200000205DF808FB00BF4DF808EDFFF7C4FF9A
:100C300034BF012000205DF808FB00BF4A0011D23C
:100C400012F5001211D20DD56FF47873B3EB625226
:100C50000ED44FEAC12343F0004343EA505323FA32
:100C600002F070474FF00000704750EA013002D1A7
:100C70004FF0FF3070474FF0000070474FEA4102DD
:100C8000B2F1E04324BFB3F5001CDCF1FE5C0DD9EA
:100C900001F0004C4FEAC0024CEA5070B2F1004F34
:100CA00040EB830008BF20F00100704711F0804F37
:100CB00021D113F13872BCBF01F00040704741F4FC
:100CC00080114FEA5252C2F11802C2F1200C10FA00
:100CD0000CF320FA02F018BF40F001004FEAC123E4
:100CE0004FEAD32303FA0CFC40EA0C0023FA02F388
:100CF0004FEA4303CCE77FEA625307D150EA01335E
:100D00001EBF4FF0FE4040F44000704701F000402D
:100D100040F0FE4040F40000704700BF53B94AB9AC
:100D2000002908BF00281CBF4FF0FF314FF0FF30F3
:100D300000F088B9ADF1080C6DE904CE00F006F8BA
:100D4000DDF804E0DDE9022304B070472DE9F04747
:100D5000089D8E4604468846002B4AD18A42174693
:100D600062D9B2FA82F64EB1C6F1200301FA06F852
:100D700020FA03F3B74043EA0808B4404FEA174E9D
:100D80001FFA87FCB8FBFEF1230C0EFB118843EA27
:100D9000084301FB0CF29A4209D9FB1801F1FF301C
:100DA00080F0EA809A4240F2E78002393B449A1A86
:100DB000A3B2B2FBFEF00EFB102243EA024300FB9B
:100DC0000CFC9C4509D9FB1800F1FF3280F0D6805D
:100DD0009C4540F2D3803B44023840EA0140A3EBFB
:100DE0000C0300211DB1F3400022C5E90032BDE82B
:100DF000F0878B4205D90DB1C5E9000100210846F5
:100E0000F5E7B3FA83F1002946D1734502D3824254
:100E100000F20581841A6EEB030201209046002D3A
:100E2000E5D0C5E90048E2E7002A00F09080B2FA78
:100E300082F6002E40F0A4808A1A030C4FEA174E67
:100E400080B2BCB20121B2FBFEFC0EFB1C2243EAC5
:100E5000024304FB0CF29A4207D9FB180CF1FF384D
:100E600002D29A4200F2E080C4469B1AB3FBFEF223
:100E70000EFB123340EA034302FB04F49C4207D901
:100E8000FB1802F1FF3002D29C4200F2CA800246F7
:100E90001B1B42EA0C40A5E7C1F120068B4022FA59
:100EA00006F71F430EFA01F420FA06F32EFA06FEA7
:100EB0004FEA1749234300FA01F81FFA87FCBEFBEB
:100EC000F9F01C0C09FB10EE44EA0E4400FB0CFE8A
:100ED000A64502FA01F209D93C1900F1FF3A80F067
:100EE0009C80A64540F2998002383C44A4EB0E0455
:100EF0001FFA83FEB4FBF9F309FB13444EEA0444E2
:100F000003FB0CFCA44508D93C1903F1FF3E80F01B
:100F10008280A4457FD9023B3C4443EA0040A4EBD5
:100F20000C04A0FB02EC64457346E14662D35FD03B
:100F30005DB1B8EB030264EB090404FA06F622FA89
:100F400001F31E43CC40C5E9006400214FE7B1FB2B
:100F5000F2FC010C41EA0E4180B240EA01423B46FC
:100F600038463C46B846BE462026B1FBF7F1A2EB18
:100F7000080241EA0C4166E7014618E710462CE7F3
:100F8000C6F120022EFA02F3B740B14020FA02F275
:100F90004FEA174E0A43B3FBFEF8BCB20EFB183300
:100FA000110C41EA034108FB04F9B04089454FEABE
:100FB000104380B23ED9791808F1FF3C01D289452F
:100FC0001FD8A1EB0901B1FBFEF909FB04F80EFBE8
:100FD000191192B242EA0142424529D2BA1809F1E6
:100FE000FF31C4D24245C2D2A9F102013A44BEE760
:100FF000F0459DD2BEEB02036CEB070C0138E146D5
:1010000096E7A7EB09094944A8F1020CB1FBFEF9E8
:1010100009FB04F8DBE773467FE7504666E70846BE
:10102000FDE63B44023A33E7ACF1020C3B441CE7DB
:1010300049469CE7A1EB0901C446B1FBFEF909FB57
:1010400004F8C4E7704700BF70B50E4B0E4E05465E
:10105000327818684FF47A73B3FBF2F3B0FBF3F015
:1010600000F054FB08B90F2D01D9012070BD0446D2
:10107000024629464FF0FF3000F0DAFA756020464C
:1010800070BD00BF300100200000002008B50B4BF0
:101090001A6842F400721A601A6842F480621A6098
:1010A0001A6842F480721A60032000F0AFFA002040
:1010B000FFF7CAFF07F0B4F9002008BD003C02406A
:1010C000034A044B11681B780B441360704700BF40
:1010D000AC01002000000020014B1868704700BFE1
:1010E000AC01002038B50446FFF7F6FF631C054647
:1010F00002D0044B1B781C44FFF7EEFF401BA042BC
:10110000FAD338BD00000020014BD3F8100A704715
:101110000070FF1F014BD3F8140A70470070FF1FC7
:10112000014BD3F8180A70470070FF1F002800F029
:101130009E8038B5056C04463DB1236CDB060CD5AA
:10114000002384F83C30012038BD04F0E3FD6564E1
:10115000236C84F83C50DB06F2D4236C474A23F41A
:10116000885323F0020343F0020323645168236889
:1011700021F44031516051686068014351605A6800
:101180002069A16822F480725A605A6842EA0022FB
:101190005A605A68E06822F040725A605A680A43FE
:1011A0005A609A68A16A22F400629A609A680243BF
:1011B0009A60334A91429A6851D022F07062E06A94
:1011C0009A609A68114399609A6822F040529A6036
:1011D0009A6802439A609A6822F002029A609A68BA
:1011E000217E42EA41029A6094F82020002A40D0F1
:1011F0005A68616A42F400625A605A6822F4604296
:101200005A605A68013942EA41325A60DA6AE16941
:1012100022F47002DA62DA6A013942EA0152DA62D1
:101220009A68616922F400729A609A6894F83000B2
:1012300042EA40229A609A6822F480629A609A6830
:10124000002042EA81229A606064236C23F0030349
:1012500043F001032364002384F83C3038BD22F0BE
:1012600070629A609A6822F040529A60B3E7012057
:1012700070475A6822F400625A60C7E700230140B1
:101280000100000F10B490F83C3083B00022012B15
:10129000019258D00123026880F83C309368DB0744
:1012A00014D42B4B2B4C1B689168A4FB03439B0C61
:1012B00003EB430341F0010191600193019B2BB1CA
:1012C000019B013B0193019B002BF9D19368DC0743
:1012D0002BD5036C23F4E06323F0010343F4807304
:1012E00003645368590505D5036C23F4405343F454
:1012F00080530364036C13F480531CBF436C23F0CE
:101300000603436400216FF0220380F83C10136051
:101310005368114943F0806343F0200353604B68E6
:10132000DB0607D00D4B9A4204D0002003B05DF8D5
:10133000044B7047936813F0405FF6D1936843F015
:1013400080439360F1E7022003B05DF8044B7047DF
:101350003001002083DE1B430023014000200140B8
:101360000368D86C704700BF704700BF704700BF6C
:1013700038B503681A6859680446900701D58A068B
:1013800053D41A685968520701D50D061BD41A6840
:101390005968D00701D54A0606D41A6859689006DC
:1013A00001D54A0169D438BD1A68D507F5D5236C33
:1013B00043F4803323642046FFF7D6FF23686FF0A1
:1013C00001021A60E9E7226CD00603D4226C42F4D1
:1013D000005222649A6812F4401F1ED19A6B12F4D4
:1013E000401F02D09A68510517D45A68520514D488
:1013F0009A6812F0405F10D1227E72B95A6822F0CA
:1014000080025A60236C23F480532364236CDD052F
:1014100003D4236C43F001032364204600F0F4F866
:1014200023686FF00C021A60B1E7226CD50603D472
:10143000226C42F4007222649A6812F0405F14D168
:10144000227E92B9DA6A12F4700F23D15A6822F020
:1014500020025A60236C23F480732364236CD90424
:1014600003D4236C43F001032364204604F0E4FC1E
:1014700023686FF012021A6083E7626C6FF0200538
:1014800042F00202626420461D60FFF76FFF23688E
:101490001D6038BD9A685005E7D4D7E770B590F85D
:1014A0003C3082B00246012B4FF00000019000F06A
:1014B0009E80012382F83C300D6813688C68092DEA
:1014C000A8B228D81E6905EB450E4FF0070C0CFAA0
:1014D0000EFC26EA0C061E611E6904FA0EF4344363
:1014E0001C614C68062C04EB84012AD85C6B05391E
:1014F0004FF01F0C88400CFA01F124EA01015963F6
:10150000596B084358633B498B422BD0002082F82B
:101510003C0002B070BD00EB400CDE68ACF11E0C6C
:101520004FF0070E04FA0CF40EFA0CFC26EA0C0637
:10153000DE60DE683443DC604C68062C04EB84011A
:10154000D4D90C2C1FD81C6B23391F26884006FACF
:1015500001F124EA01011963196B08432549186355
:101560008B42D3D1122D1BD0234B9D4222D0112D63
:10157000CCD1224B596821F480015960596841F45B
:1015800000015960C2E7DC6A41391F26884006FA2B
:1015900001F124EA0101D962D96A0843D862B2E7AD
:1015A000164B596821F400015960596841F48001D3
:1015B0005960ABE7114B124C5968124821F4800175
:1015C0005960596841F4000159602368A0FB030386
:1015D0009B0C03EB83035B000193019B002B95D0D5
:1015E000019B013B0193019B002BF9D18EE7022067
:1015F00002B070BD00200140120000100023014025
:101600003001002083DE1B43704700BF0749CA68D2
:1016100003024FF6FF0003F4E0630240134343F07C
:10162000BF6343F40033CB60704700BF00ED00E0C0
:101630001B4BDB68C3F3022300B5C3F1070EBEF1F9
:10164000040F03F1040C28BF4FF0040EBCF1060F89
:101650001CD9A3F1030C4FF0FF3303FA0CF322EA79
:1016600003024FF0FF3303FA0EF321EA030303FAF8
:101670000CF313431B010028DBB20ADB00F16040CE
:1016800000F5614080F800335DF804FB00229446C9
:10169000E7E7044A00F00F00024413765DF804FB0C
:1016A00000ED00E0FCEC00E0002807DB4109044A03
:1016B00000F01F000123834042F82130704700BF33
:1016C00000E100E000280CDB4309064900F01F00A0
:1016D00020330122824041F82320BFF34F8FBFF314
:1016E0006F8F704700E100E0BFF34F8F0549064B55
:1016F000CA6802F4E0621343CB60BFF34F8F00BFB0
:10170000FDE700BF00ED00E00400FA050138B0F18C
:10171000807F01D30120704710B44FF0E023074CC5
:1017200058614FF0F00C84F823C0002207211046C6
:101730009A615DF8044B1961704700BF00ED00E04D
:1017400038B50446FFF7C8FC002C6DD02368022290
:10175000002184F8341084F835201A6822F0010240
:1017600005461A6005E0FFF7B7FC431B052B37D889
:1017700023681A68D107F6D4D4E90120E16802434E
:101780000A43D4E90451A0692A430A43E1691D6868
:1017900002430A4331492940256A2A430A43616AC0
:1017A000042924D01A605A6922F007021143D8B2E2
:1017B0002B4A59611038A2FB0052120929496FF3D4
:1017C0000903895CE1655F2888BF04333F228A40B2
:1017D000A36500209A600123606584F8353038BD28
:1017E00003232022626584F83530184638BDD4E9D9
:1017F0000B512943114319605969A26A21F007016D
:10180000114341F00401002DD1D078B1B0F5005F53
:1018100016D0022A03D9032AC9D1EA01C7D540222A
:101820000123626584F83530012038BD012A03D0D8
:1018300032F00202BBD1F0E7B5F1C07FB7D1EEE7DD
:10184000032AB4D801A050F822F000BF1F180208E4
:101850001B1802081F180208391802083F8010E000
:10186000ABAAAAAAD8AC020870B490F83440856D2F
:10187000012C0AD090F835404FF0010C644580F8F7
:1018800034C005D0002380F83430022070BC70478B
:10189000022680F83560046800264665266826F42E
:1018A0008026266063608368402B0EBFA260A16023
:1018B000E260C26D08BFE1603F239340AB602368E4
:1018C000026C43F016032360636943F08003636195
:1018D0001AB1236843F008032360236843F001032F
:1018E0000020236070BC704790F83530022B03D085
:1018F00080234365012070470268052380F8353056
:10190000136823F00103002013607047F0B583B023
:10191000674A876D166800230193C36D3D680822EE
:101920009A402A42044603D001680868400778D4E8
:1019300001229A402A4203D02168496908066AD4E4
:1019400004229A402A4203D02168096889075CD49E
:1019500010229A402A4203D021680868000741D427
:1019600020229A402A4214D021680868C00610D567
:10197000BA6094F83520052A63D00B6813F4802FE1
:101980000B687ED0190340F18980E36B0BB12046D0
:101990009847636D23B3636DDA071AD5226845490A
:1019A000052384F835301368A1FB061623F00103E4
:1019B000B60A136002E01368DB0704D5019B01330C
:1019C000B3420193F7D90022012384F8342084F82C
:1019D0003530E36C23B1204603B0BDE8F040184732
:1019E00003B0F0BDBA600A6812F4802F0A6822D1F1
:1019F000D20503D40A6822F008020A60226C002A89
:101A0000AED020469047E36DAAE7BA60626D42F01F
:101A1000040262659CE7BA60626D42F00202626590
:101A20008EE7086820F004000860BA60626D42F03A
:101A3000010262657CE71103E0D5A26C002AE0D1C7
:101A40008EE70A6822F016020A604A6922F08002D4
:101A50004A61226C3AB30A6822F008020A603F2207
:101A600002FA03F3216DBB600022012384F83420C5
:101A700084F835300029B3D0204603B0BDE8F040EB
:101A8000084713F4807380D10A6822F010020A60BC
:101A9000012284F8343084F8352076E7636C002B1B
:101AA0007FF475AF75E7A26C002AD4D1D7E700BFE9
:101AB00030010020B5814E1B214BDA68D00605D5D8
:101AC0002049CA6910200243CA61D8601C4BDA68F9
:101AD000910606D51B49CA69202042F00802CA6156
:101AE000D860174BDA68520606D51649CA694020F5
:101AF00042F00402CA61D860114BDA68100606D5BC
:101B00001049CA69802042F00202CA61D8600C4BB9
:101B1000DA68D10507D50B49CA694FF4807042F0E5
:101B20000102CA61D860064BDA68920706D50549FA
:101B3000CA69022042F02002CA61D860704700BF23
:101B4000003C0240B00100202DE9F84F4C4F9B466D
:101B50003B7E012B5ED001233B76002381468A46E3
:101B60009046FB61FFF7B8FA464D04464CF25036FA
:101B700004E0FFF7B1FA001BB04246D8EB68D80387
:101B8000F7D4EB68D90744BF0123EB603D4BDA681B
:101B900012F4F97F52D1B9F1000F3ED0B9F1010F23
:101BA0001A694FD022F440721A61B9F1020F1A6912
:101BB0005CD042F440721A611A6942F001021A6163
:101BC000CAF80080CAF804B00023FB61FFF784FA6A
:101BD0002C4D04464CF2503604E0FFF77DFA001B12
:101BE000B04229D8EB68DA03F7D4EB68DB0744BFCF
:101BF0000123EB60234BD86810F4F97032D1214AED
:101C0000136923F00103136100E0032000233B76F6
:101C1000BDE8F88F0220BDE8F88F1A6922F44072FF
:101C20001A611A691A611A695FFA88F842F00102AA
:101C30001A618AF80080C7E70320E0E7FFF73CFF5E
:101C40000120E3E722F440721A611A6942F48072BB
:101C50001A611A691FFA88F842F001021A61AAF89B
:101C60000080B1E7FFF728FF0120C8E742F40072C7
:101C70001A611A6942F001021A61CAF80080A3E7EA
:101C8000B0010020003C02400D4B1A6922F4407262
:101C90001A611A69022994BF09024FF440710A437C
:101CA0001A611A6922F0F8021A611A6942EAC00040
:101CB00040F0020018611A6942F480321A617047DC
:101CC000003C02402DE9F04FAD4A0B68904287B0CE
:101CD0004FF0000200F0DD80DFF8B4B28A4603E086
:101CE0000132102A00F09680012101FA02F434EA50
:101CF000030104EA0307F3D1DAF80410DAF8085014
:101D0000560005FA06FC21F010080325B54001F045
:101D1000030EB8F1020F6FEA05050EFA06FE7CD03D
:101D2000D0F8009008F1FF3809EA050949EA0E0EDB
:101D3000B8F1010FC0F800E040F28F80C4682C4079
:101D400044EA0C04C460CC00CAD58E4D002405942E
:101D50006C6C44F480446C646C6C04F480440594B2
:101D6000059C22F0030404F1804404F59C3402F045
:101D70000306A568B6004FF00F0C0CFA06FC25EA26
:101D80000C0E814DA8427ED0804DA84200F04981C2
:101D9000DFF800C2604500F04B81DFF8FCC1604510
:101DA00000F04C81DFF8F4C1604500F04E81DFF8AF
:101DB000F0C160450CBF4FF0060C4FF0070C0CFA59
:101DC00006F64EEA0605A560DBF80040FD43CE03AB
:101DD00054BF2C403C43CBF80040DBF804408E035A
:101DE00054BF2C403C43CBF80440DBF80840CE0203
:101DF00054BF2C403C43CBF80840DBF80C40890230
:101E000002F1010254BF2C403C43102ACBF80C4095
:101E10007FF46AAF07B0BDE8F08F4FEAD20900EB5C
:101E2000890902F00708D9F820700197DAF81070D4
:101E30004FEA880807FA08F702970F2707FA08F809
:101E4000019F27EA0808029F47EA0807C9F820709F
:101E500007682F4047EA0E070760876807EA050E04
:101E6000DAF80C70B74047EA0E0787604668090940
:101E7000914026EA040421434160C168294041EAB7
:101E80000C01C1602CE7012505FA06F64EEA0605AD
:101E900099E7DFF8FCB001914FF0010802E0013250
:101EA000102AB7D008FA02F535EA030403EA050759
:101EB000F5D101994C688E6803214FEA420C04EA7F
:101EC000010E06FA0CFA01FA0CF60EFA0CF124F0E7
:101ED000100EBEF1020F6FEA0606029162D0D0F832
:101EE00000900EF1FF3E09EA060941EA0909BEF138
:101EF000010FC0F8009075D9C568354045EA0A055C
:101F0000C560E500CBD5002105911E494D6C45F417
:101F100080454D644D6C05F480450595059D22F086
:101F2000030505F1804505F59C3502F00306D5F85B
:101F300008C00F21B60001FA06F62CEA0606AE60CC
:101F4000E103DBF800506FEA070668D43540CBF8B0
:101F50000050A103DBF804505FD43540CBF80450A7
:101F6000E102DBF8085056D43540CBF80850A10206
:101F7000DBF80C504DD43540CBF80C508FE700BF48
:101F80000000024000380240000402400008024005
:101F9000003C0140000C02400010024000140240CE
:101FA000001802400199D708BF00096907F180476E
:101FB00002F0070E07F500374FEA8E0E01FA0EF118
:101FC000D7F8209003910F2101FA0EFE039929EA18
:101FD0000E0941EA090EC7F820E007680299374068
:101FE000394301608768019907EA060ECF6807FA4E
:101FF0000CF747EA0E07876047682409944027EAF0
:1020000005052C434460C468344044EA0A04C460B3
:1020100045E73D43B0E73D43A7E73D439EE73D43EA
:1020200095E74FF0020C0CFA06F64EEA0605CAE6F2
:10203000032505FA06F64EEA0605C4E64FF0040C41
:102040000CFA06F64EEA0605BDE64FF0050C0CFA52
:1020500006F64EEA0605B6E602B909048161704744
:10206000436931EA030308BF09048161704700BF77
:10207000164908B58B6803F00C03042B1BD0082B02
:1020800001D0134808BD4A684B68496813F48003BF
:1020900002F03F0211D10E48C1F38811A1FB0001EB
:1020A000FEF73CFE094B5B68C3F3014301335B0061
:1020B000B0FBF3F008BD074808BD0648C1F388111E
:1020C0000023A1FB0001FEF729FEEBE700380240E8
:1020D0000024F400001BB700002800F08680474A67
:1020E000136803F00F038B422DE9F0410D460446BF
:1020F00009D2CBB21370136803F00F038B4202D0E6
:102100000120BDE8F0812368980714D5590704D54C
:102110003B498A6842F4E0528A601A0704D538497C
:102120008A6842F460428A603549A0688A6822F071
:10213000F00202438A60DF0721D56268012A56D087
:10214000931E012B2E4B1B684CD99907D8D52C4ECA
:10215000B36823F003031343B360FEF7BDFF41F2FE
:102160008838074604E0FEF7B7FFC01B404543D858
:10217000B368626803F00C03B3EB820FF3D11F4A1C
:10218000136803F00F03AB4206D9EBB21370136868
:1021900003F00F03AB42B3D123685A0706D51849A1
:1021A000E0688A6822F4E05202438A601B0707D580
:1021B000134A2169936823F4604343EAC10393609F
:1021C000FFF756FF0E4A0F4C92680F49C2F30312F5
:1021D0000346A25C0020D3400B60FEF735FF0020D1
:1021E000BDE8F0819801B2D48AE701207047044B22
:1021F0001B689E03ABD483E7032082E7003C0240C8
:102200000038024000E2020830010020044B05497A
:102210009B68054A0868C3F38223D35CD8407047A3
:10222000003802403001002010E20208044B05494A
:102230009B68054A0868C3F34233D35CD8407047B3
:10224000003802403001002010E202082DE9F04180
:102250000368DD0782B004462FD59F498A6802F0E3
:102260000C02042A00F0C2808A6802F00C02082ADC
:1022700000F0B8806368B3F5803F00F0F980B3F5F3
:10228000A02F00F04C81944D2A6822F480322A60FD
:102290002A6822F480222A60002B40F0EE80FEF7AC
:1022A0001BFF064605E0FEF717FF801B642800F2BF
:1022B00002812B689B03F6D423689F0728D5864AA2
:1022C000916811F00C0F00F09F80916801F00C01F3
:1022D000082900F09580E368002B00F00F817F4B08
:1022E0007D4E01221A60FEF7F7FE054605E0FEF777
:1022F000F3FE401B022800F2DE8033689807F6D513
:102300003368226923F0F80343EAC2033360236889
:102310001A0716D56369002B00F081806F4B6E4E53
:102320000122C3F8802EFEF7D7FE054605E0FEF732
:10233000D3FE401B022800F2BE80736F9B07F6D5C8
:10234000236858072FD5644A136C13F0805377D055
:102350000025634E3368D90540F19D80A368012BA9
:1023600000F0AD80052B00F019815B4E326F22F03A
:1023700001023267326F22F004023267002B40F014
:10238000A380FEF7A9FE41F28838074605E0FEF774
:10239000A3FEC01B404500F28E80336F9807F6D431
:1023A000002D40F0C680A369C3B14B4DAA6802F06E
:1023B0000C02082A2FD0022B484B4FF000021A665D
:1023C00000F0BD80FEF788FE044604E0FEF784FEC0
:1023D000001B02286FD82B689B01F7D4002002B0A5
:1023E000BDE8F0814A6850027FF544AF3A4A12686E
:1023F00091037FF562AF6268002A7FF45EAF0AE066
:10240000526856023FF567AF334A1268950723D5E5
:10241000E268012A20D0012002B0BDE8F0812F4AF5
:102420002D4EC2F8803EFEF757FE054604E0FEF74B
:1024300053FE401B02283ED8736F9F07F7D47FE7F7
:102440000193136C43F080531364136C03F08053B7
:102450000193019B01257CE71F4920690A6822F04E
:10246000F80242EAC0020A601A077FF56AAF51E734
:10247000194A136843F480331360FEF72DFE164E9D
:10248000054604E0FEF728FE401B642813D8336895
:102490009A03F7D510E7336843F480733360FEF78F
:1024A0001BFE07463368DA053FF558AFFEF714FE0A
:1024B000C01B0228F6D9032002B0BDE8F081064A0D
:1024C000136F43F001031367FEF706FE024F064643
:1024D00041F288380BE000BF00380240000047425C
:1024E00000700040FEF7F8FD801B4045E3D83B6FCD
:1024F0009B07F7D5002D3FF456AF1AE02C4A2D4E1E
:102500001360FEF7E9FD054604E0FEF7E5FD401B1C
:102510000228D0D833689907F7D42368F8E6254B0A
:102520001A6842F480221A601A6842F480321A60F3
:10253000A3E7204A136C23F08053136433E7FEF7BC
:10254000CBFD064604E0FEF7C7FD801B0228B2D88B
:102550002B689901F7D4D4E90731626A0B4343EA47
:102560008213D4E90A20216B43EA0063520843EA4C
:102570000173013A0E4943EA024301226B600A6685
:10258000FEF7AAFD0B4D044604E0FEF7A5FD001B77
:10259000022890D82B689A01F7D51FE7054B1A6FD0
:1025A00042F004021A671A6F42F001021A678BE7C1
:1025B0000000474200380240304B30B51B68304DB8
:1025C0000446A5FB03534FF47A705B0D00FB03F345
:1025D000606885B0B0F5827F039307D10CE0039B60
:1025E0002268013B039393681B0602D5039B002BD3
:1025F000F5D1002005B030BD4D1C04D12268936890
:102600001C06FCD4F5E723689B681806F1D5CDE9D4
:102610000012FEF761FD019A0099831A9942F2D8DF
:10262000D4E900315A68B1F5827F22F0E0025A60A5
:1026300017D0A26AB2F5005F07D11A6822F40052DF
:102640001A601A6842F400521A60012384F851306B
:10265000636D002243F0200384F85020636503205B
:10266000C8E7A268B2F5004F02D0B2F5806FE0D1A2
:102670001A6822F040021A60DBE700BF3001002038
:10268000819F5E1600283BD038B590F8513000226B
:102690000446826203F0FF0163B31046D4E90131BE
:1026A000E26825680B431343D4E904120B43134338
:1026B000E269022184F851101343226A2968134306
:1026C000A26921F04001296002F4007C616A120CC9
:1026D00043EA0C0302F0040203430A432B606A60DE
:1026E000EB69002023F400630122EB61606584F84C
:1026F000512038BD80F8501003F0BAFAA06ACDE737
:10270000012070472DE9F041044690F8500001285F
:1027100082B073D01D46012384F850308846174696
:10272000FEF7DAFC94F85130012B0646D8B209D0F6
:1027300002200122002384F8512084F8503002B096
:10274000BDE8F081B8F1000FF3D0002FF1D0A268FE
:102750002068C4F8308000230321B2F5004F84F8CC
:102760005110C4E910336365A786E786A363A38786
:10277000E387844672D00368590603D4036843F0A4
:1027800040030360E3686268B3F5006F3AD0002A43
:1027900000F08280012F7FD0E38E9BB2C3B1681C12
:1027A0006FD123689A68910740F18180226B12787B
:1027B0001A73B4F836C0236B0CF1FF3C1FFA8CFC83
:1027C000A4F836C0E18E013389B223630029E8D131
:1027D000324629462046FFF7EFFE08B12023636505
:1027E000A36833B922680193D36801939368019376
:1027F000019B606D003818BF01209AE7022002B0EB
:10280000BDE8F081002A75D1414631F8023BC36032
:10281000E38E2163013B9BB2E386E38E9BB2002BE8
:10282000D6D06B1C5CD183689F070FD5226B32F822
:10283000023BC360E38E2263013B9BB2E386E38EDF
:102840009BB2002BC4D083689F07EFD4FEF744FCF3
:10285000E38E9BB2002BBBD02068E4E7036843F40F
:102860008043036087E7226B12781A73E38E226B32
:10287000013B01329BB22263E386E38E9BB2002BC5
:10288000A6D023689A689207EDD4FEF725FC801B3A
:10289000A842F2D303204CE798F800300373E38E8C
:1028A000226B013B01329BB22263E38674E7FEF7A1
:1028B00013FCE38E9BB2002B7FF473AF88E7226B8F
:1028C00032F8023BCCF80C30E38E2263013B9BB222
:1028D000E386E38E9BB2002B3FF47AAFD4F800C0BE
:1028E000DCF808309A07EAD4FEF7F6FB831BAB420C
:1028F000EFD3CFE7012F90D186E700BF2DE9F0415C
:10290000044690F85000012882B000F095801D46E2
:10291000012384F8503088461746FEF7DDFB94F813
:1029200051306168012B0646DAB211D0B1F5827FD1
:1029300009D002200122002384F8512084F850306D
:1029400002B0BDE8F081A368002BF2D1042AF0D1D7
:10295000B8F1000F76D0002F74D0002D72D094F80B
:102960005130A763042B1CBF052384F8513000238A
:102970006365C4E910332368E587E5861A68A5878F
:102980005206C4F83080A58603D41A6842F040028B
:102990001A60E268B2F5006F00F08D806A1E3A445A
:1029A000A26300297CD0012D7AD0089B01334FF01F
:1029B000010528D048E021688B689A070FD5E38E7F
:1029C0009BB263B15DB1236B1B780B73E38E226BFB
:1029D0002168013B01329BB20025E38622638B68AC
:1029E00013F001030DD0E28F92B252B1A26BC9680D
:1029F0001170E28FA16B013A013992B2A163E287B3
:102A00001D46FEF769FBE38E9BB2002BD3D1E38F0B
:102A10009BB2002BCFD1089932462046FFF7CCFD60
:102A200070B9A368002B85D123680190DA68019200
:102A30009B680193019B7DE7022002B0BDE8F08115
:102A400020236365012075E7E38E9BB21BB9E38FFA
:102A50009BB2002BDFD0226893689B070FD5E38ED3
:102A60009BB263B15DB1236B1B781373E38E226B52
:102A7000013B01329BB222632268E3860025936802
:102A800013F0010304D0E18F89B2002940F0878060
:102A9000FEF722FB089B801B9842D5D3032049E711
:102AA00098F800201A73E38E226B013B01329BB22F
:102AB0002263E38679E700293CD1414631F8022BB5
:102AC000DA60E38E2163013B9BB2E386089B01330E
:102AD0004FF0010525D030E02268936898070DD5A6
:102AE000E38E9BB253B145B1216B31F8023BD36009
:102AF000E38E2163013B9BB2E3860025936813F0CC
:102B000001030CD0E18F89B249B1A16BD26821F8E1
:102B1000022B1D46E38FA163013B9BB2E387FEF7C7
:102B2000DBFAE38E9BB2002BD6D1E38F9BB2002B56
:102B3000D2D170E7012DC9D1BFE7E38E9BB223B993
:102B4000E38F9BB2002B3FF466AF2268936899072E
:102B50000DD5E38E9BB253B145B1216B31F8023BE9
:102B6000D360E38E2163013B9BB2E386002593682B
:102B700013F001030CD0E18F89B249B1A16BD26887
:102B800021F8022B1D46E38FA163013B9BB2E38733
:102B9000FEF7A2FA089B801B9842CED37EE7A16B7A
:102BA000D2680A70E28FA16B013A013992B2A16337
:102BB000E2871D466CE700BF2DE9F0411D464368E2
:102BC000B3F5827F82B004461746884661D094F8F8
:102BD0005030012B69D0012384F85030FEF77CFA85
:102BE00094F85130012B0646D8B209D002200122B8
:102BF000002384F8512084F8503002B0BDE8F08101
:102C0000B8F1000FF3D0002FF1D0A2682168C4F80A
:102C1000388000230420B2F5004F84F85100C4E945
:102C200010336365A787E7872363A386E38603D111
:102C30000B6823F480430B600B68580603D40B68C1
:102C400043F040030B60E368002B51D0E38F9BB24D
:102C5000002B00F0C480681C38D18B68DA073FD5A0
:102C6000A36BCA6823F8022BE28FA363013A92B2E6
:102C7000E287E38F9BB2002BEFD16368B3F5827FCD
:102C800075D08B68D807FCD4606D003818BF012060
:102C9000ADE78368002B9AD100950425134680F890
:102CA00051500A46FFF72AFEA7E7022002B0BDE80E
:102CB000F081A26BCB6822F8023BE38FA263013B59
:102CC0009BB2E387E38F9BB2002B4CD08B68DB0772
:102CD000EFD4FEF701FA801BA84242D22168F1E747
:102CE000FEF7FAF9E38F21689BB2002BB5D1C4E758
:102CF000E38F9BB2002B72D06A1C2AD18B68DB0752
:102D000011D5A36B0A7B1A70E28FA16B013A92B2C4
:102D1000E287E38F4A1C9BB22168A263002BACD0F0
:102D20008B68DB07EDD4FEF7D7F9E38F21689BB200
:102D3000002BE3D1A1E7A36B0A7B1A70E38FA26B90
:102D4000013B01329BB2A263E387E38F21689BB210
:102D50004BB18B68DF07EED4FEF7BEF9801BA842AB
:102D6000F3D3032043E76368B3F5827F3ED1A268C3
:102D7000B2F5004F08D0B2F5806F18D06F1C08D1A3
:102D80008B681806FCD47FE70B6823F040030B60C8
:102D9000F4E78B6819067FF577AFFEF79DF9831B83
:102DA0009D4231D921688B681906F6D46CE70B680F
:102DB0006A1C23F040030B6003D18B68DB07FCD453
:102DC00062E78B68DA077FF55FAFFEF785F9831B53
:102DD0009D4219D921688B68DA07F6D454E76368F5
:102DE000B3F5827FC4D06F1C3FF44BAF8B68DB0719
:102DF0007FF54AAFFEF770F9831B9D4204D9216825
:102E00008B68DB07F6D43FE7D4E900315A68B1F5A7
:102E1000827F22F0E0025A6015D0A26AB2F5005F0C
:102E200007D11A6822F400521A601A6842F400525C
:102E30001A60012384F85130636D43F02003636509
:102E40002023636520E7A268B2F5004F02D0B2F5F7
:102E5000806FE2D11A6822F040021A60DDE700BFFD
:102E6000704700BF30B502685168936813F0400F97
:102E700085B00446C3F3801516D113F0010F53D16A
:102E800098076AD508067CD4980613D4DB0568D564
:102E90008D0666D5636D002043F0080363650390DB
:102EA00093680393039B18E0980742D5080668D4FB
:102EB000980640D5880654D5002D56D1606D40F057
:102EC000010060650020029090680290106820F078
:102ED000400010600298DB05DCD4636D002B40D00D
:102EE0005368012023F0E0038D07536084F85100FC
:102EF00059D05368E06C23F00303536040B12C4B6E
:102F00000365FEF7F1FC18B1636D43F040036365A0
:102F1000A06C30B3264B0365FEF7E6FC08B3636D87
:102F200043F0400363651CE011F0400FA8D0036C30
:102F300029E09D0617D4880613D594F8510003287C
:102F400017D0606D40F00400606500200090D068EC
:102F50000090906800900098BDE7980696D5880686
:102F6000ACD405B030BD8D06FBD594F851000328D4
:102F70000DD100230193D368019393680193019BC2
:102F8000EFE7636C204605B0BDE830401847606D40
:102F900040F00400606500200090D06800909068C8
:102FA000009000988AE72046FFF75AFFD9E700BF54
:102FB000B52F020808B5806B0023C387C386FFF7CF
:102FC0004FFF08BD002873D038B590F83D30044657
:102FD00003F0FF02002B66D022683649022384F8F2
:102FE0003D308A4213684AD0B2F1804F30D0A1F50B
:102FF0007C418A422CD001F580618A4228D001F5BB
:1030000080618A4224D001F578418A4237D02A492A
:103010008A4221D001F580618A421DD001F580618C
:103020008A4219D0A1F598318A4215D001F5806104
:103030008A4211D001F580618A420DD0A56961688C
:10304000E06823F080032B431360D062916210E0AC
:10305000A16823F070030B432069A16923F4407336
:10306000034323F08003E0680B4361681360D06280
:1030700091620123536184F83D30002038BDA0687F
:10308000216923F07003034323F440730B43A169C8
:1030900023F080030B431360E368D3626368936299
:1030A00063691363E5E780F83C2002F039FF93E79A
:1030B0000120704700000140004001400368DA68C9
:1030C00042F00102DA609A6802F00702062A03D091
:1030D0001A6842F001021A60002070470268116904
:1030E0002DE9F8430446C068A368256921F44051DE
:1030F00001431161D168E0692B43656921F41641F0
:103100002B4321F00C0103430B43D3605369A169A6
:1031100023F440730B43B0F5004F53619D4B00F017
:103120009C809A425AD003F580639A4256D0FFF7AA
:103130006DF86368DFF8608200EB80009B0000EBB5
:103140008000B0FBF3F7FFF761F8A8FB073763686F
:1031500000EB80009B0000EB8006B6FBF3F6FFF768
:1031600055F8636800EB80009B0000EB8000B0FB2B
:10317000F3F0A8FB003040094FF0640909FB10662A
:103180003601FFF743F83236A8FB063662687F093E
:10319000760900EB800303EB830392003F0106F006
:1031A000F006B3FBF2F5FFF731F8D4E9002300EBAA
:1031B00080009B0000EB8000B0FBF3F0A8FB003028
:1031C000400909FB10531B013233A8FB0383C3F3EF
:1031D000431333433B449360BDE8F883FFF726F87D
:1031E0006368DFF8B48100EB80009B0000EB800097
:1031F000B0FBF3F7FFF71AF8A8FB0737636800EB9B
:1032000080009B0000EB8006B6FBF3F6FFF70EF89C
:10321000636800EB80009B0000EB8000B0FBF3F0E4
:10322000A8FB003040094FF0640909FB1066360125
:10323000FEF7FCFF3236A8FB063663687F09760985
:1032400000EB80009B003F0106F0F00600EB8000E1
:10325000B0FBF3F5FEF7EAFFA7E79A425AD003F571
:1032600080639A4256D0FEF7D1FF6368DFF8288169
:1032700000EB80005B0000EB8007B7FBF3F7FEF785
:10328000C5FFA8FB0737636800EB80005B0000EB1D
:103290008006B6FBF3F6FEF7B9FF636800EB80002B
:1032A00000EB80005B00B0FBF3F3A8FB03235B099A
:1032B0004FF0640909FB1366F600FEF7A7FF3236EC
:1032C000A8FB063662687F09360900EB800303EB32
:1032D000830352003F0106F4F876B3FBF2F5FEF7E4
:1032E00095FFD4E9002300EB800000EB80005B0039
:1032F000B0FBF3F3A8FB03135B0909FB1353DB00DB
:103300003233A8FB0383C3F342133B44334493603B
:10331000BDE8F883FEF78AFF6368DFF87C8000EB86
:1033200080005B0000EB8000B0FBF3F7FEF77EFF50
:10333000A8FB0737636800EB80005B0000EB8006AA
:10334000B6FBF3F6FEF772FF636800EB800000EB5C
:1033500080005B00B0FBF3F3A8FB03235B094FF095
:10336000640909FB1366F600FEF760FF3236A8FB1E
:10337000063663687F09360900EB80005B003F0179
:1033800006F4F87600EB8000B0FBF3F5FEF74EFF95
:10339000A7E700BF001001401F85EB5160B338B5AF
:1033A00090F83930044603F0FF0203B32268242367
:1033B00084F83930D36823F400532046D360FFF7F4
:1033C0008DFE23681A6922F490421A615A6922F02C
:1033D0002A025A61DA680025202142F40052DA609C
:1033E000E56384F8391084F83A10284638BD80F82F
:1033F000382005F031F8D9E701207047F8B50446C8
:1034000090F8390020282DD151B34AB394F83800F0
:10341000012827D00120E28484F83800A284206BA0
:10342000DFF84CC0104F114E216213462268002570
:103430004FF0210EE563043284F839E0C0E90FC78C
:10344000C0E91365FEF710FA23686FF040021A60B6
:1034500084F838505A6942F0800228465A61F8BD13
:103460000120F8BD0220F8BDA53402082535020868
:103470007534020808B50368806B1B6813F4807309
:103480000AD10268C384536923F080035361D3686F
:1034900043F04003D36008BD04F0E2FE08BD00BF66
:1034A000704700BF08B5806BFFF7FAFF08BD00BF8B
:1034B000704700BF10B5846801690268836AB4F57B
:1034C000805F20D05C1C52688462C9B91A70C38DB9
:1034D000013B9BB2C38503B110BD0368DA6822F0DB
:1034E0002002DA60DA6822F48072DA605A692021F8
:1034F00022F001025A6180F83A10FFF7D9FF10BD9F
:1035000002F07F02E2E7526829B9C2F3080223F809
:10351000022B8362DBE7D2B223F8012B8362D6E76A
:10352000704700BF08B5806B0368596990F839206F
:10353000212A0BD0596990F83A20222A16D0C36B61
:1035400043F01003C363FFF7EBFF08BD0906F1D595
:103550000022C284DA68202122F0C002DA6080F8FA
:103560003910596990F83A20222AE8D14A06E6D55E
:103570000022C285DA6822F49072DA605A6920214A
:1035800022F001025A6180F83A10D8E703681A68FD
:1035900070B51607DD68596904460CD1910601D54E
:1035A000AE0638D4100601D529063CD4560601D5FE
:1035B000680654D470BD11F001016ED115F4907FEE
:1035C000F0D0D0070AD5EE0540F19B80E06B56079E
:1035D00040F00100E06351D5002962D1E16B002980
:1035E000E8D0920609D5AE0607D594F83A20222AEB
:1035F00003D12046FFF75EFF23685A69E16B02F0B2
:10360000400201F0080152EA010553D12046FFF7BC
:1036100087FFE56370BD90F83A30222BCAD1BDE830
:103620007040FFF747BF94F83920212AC2D1A16822
:10363000226AB1F5805F6ED0511C216212785A6007
:10364000E28C013A92B2E284002AB3D1DA6822F025
:103650008002DA60DA6842F04002DA6070BDDA684F
:10366000202122F04002DA60204684F8391004F06C
:10367000F7FD70BDEE05A9D4500712D4960744D5C6
:103680000029ABD0E16B100741F00401E163A5D53F
:10369000E16B41F00801E163A0E7D007EAD45107EC
:1036A0002CD5E16B960741F00201E163EAD41107E2
:1036B00094D5EDE7DA6822F49072DA605A69202135
:1036C00022F001025A6184F83A105A69550611D560
:1036D0005A69606B22F040025A6158B1144B03657D
:1036E000FEF702F900283FF465AF606BBDE870405B
:1036F000036D18472046FFF713FF70BD9107C1D433
:10370000D5E750073FF56AAFB8E710077FF566AF1A
:103710000029BDD162E711882069C1F30801596011
:1037200010B9023222628BE70132226288E700BFC1
:103730003537020808B5806B0023C385C384FFF7C3
:10374000EFFE08BD08B5034B187001F07FFB024B7C
:10375000986008BDD001002008000020034B002223
:103760000121C3E901221970704700BFDC0100206C
:10377000014B00221A707047DC01002008B50220BE
:1037800001F0F2FDC0F3071008BD00BF70B5274B74
:10379000274E1B78012B92B044D0D02086F87B00B6
:1037A0000323244C237102F063F8684603F0FCFB0A
:1037B00021482379DDF82110A16000F5F8320025B9
:1037C00082F89C5547F6645202FB03F38360DDF8F0
:1037D0002530E360DDF829302361DDF82D306361A9
:1037E000DDF83130A361DDF83530E361DDF83930E3
:1037F0002362DDF83D304560056063622946DDF8EF
:1038000041300E4AA3620C30F560256006F08EF957
:103810002A4601210920FDF70BFF0920FDF744FF8F
:1038200012B070BD96F87B000423BAE75C3E02201C
:1038300008000020E80100201402002090F501009B
:103840000A4A0B4910B40B4C002302F5F83CC2E9BC
:103850000033236001225DF8044B8CF89C3509206D
:10386000A1F80320CB60FDF71FBF00BF14020020AA
:1038700008000020E801002010B50A4C0020214675
:1038800004F0D2FB0849002004F0CEFB21460020C2
:1038900004F0CAFB054B0022BDE810400920DA7095
:1038A000FDF710BF18E2020834E202080800002009
:1038B0002DE9F04FC84EC94F3268C94BC94D2DEDA7
:1038C000028B8BB003320392FA6893F800B034791C
:1038D00002F1030A6A680192BBF1010F04EB440292
:1038E0008046029240F0368101888278002361F39D
:1038F0000F0362F31743180223F07F4248BF42F0E0
:103900007F4207EE902AF8EEE77AFDEEE77A17EEAF
:10391000900AFCF78FFECDE90401B068FCF79CFE2D
:1039200002460B46DDE90401FCF7EEFECDE9040199
:10393000F068FCF791FE02460B46DDE90401FCF756
:103940002DFDFDF79BF9DFEDA86A9FEDA87AB8F889
:10395000031098F8052007EE900AF4EEE67AF1EEEF
:1039600010FAB8BFF0EE667A0023F4EEC77A61F37E
:103970000F03F1EE10FA62F3174388BFF0EE477AB7
:1039800023F07F42190248BF42F07F42FDEEE78AF2
:1039900007EE902AF8EEE77AF8EEE88AFDEEE77A8D
:1039A00017EE900AFCF746FECDE904017069FCF7BA
:1039B00053FE02460B46DDE90401FCF7A5FECDE906
:1039C0000401B069FCF748FE02460B46DDE904013C
:1039D000FCF7E4FCFDF752F9DFED836A9FED837A93
:1039E000B8F8061098F8082007EE900AF4EEE67A88
:1039F000F1EE10FAB8BFF0EE667A0023F4EEC77A63
:103A000061F30F03F1EE10FA62F3174388BFF0EE93
:103A1000477A23F07F421B0248BF42F07F42BDEE4F
:103A2000E78A07EE902AF8EEE77AFDEEE77A17EEDE
:103A3000900AFCF7FFFD8046306A8946FCF70CFED1
:103A400002460B4640464946FCF75EFE8046706AD9
:103A50008946FCF701FE02460B4640464946FCF704
:103A60009DFCFDF70BF9DFED606A9FED607A96ED46
:103A7000076A96ED045AD6ED0A5ADFF87C81019B5D
:103A8000DFF8789107EE900AF4EEE67AF1EE10FA9C
:103A9000B8BFF0EE667AF4EEC77AF1EE10FA88BF9E
:103AA000F0EE477ABDEEE77ADFED516AB8EEC77AFD
:103AB000F8EEC87A68EEA68A27EE267A67EEA67A2E
:103AC000C8EE866AA8FB0330224607A909EB50001E
:103AD00087EE056A87EEA57AF1EE667A8DED076AC4
:103AE000CDED087A8DED097A06F09BF86B684FF4FE
:103AF0007A60A8FB032304FB00F000EB530022468E
:103B000008A9484406F08DF86B684FF4FA50A8FBFA
:103B1000038304FB00F000EB53002246484409A94C
:103B200006F07FF86B68029AC7F80CA01A44134697
:103B30006A60039A326042F6E06204FB02F29A4243
:103B400000F083802A689A4278D00BB0BDEC028BDB
:103B5000BDE8F08F019805F10C09224608EB04013D
:103B6000484406F05EF868682044224641464844CE
:103B700006F057F86A68022004FB008110FB04205D
:103B80004844224606F04DF8039B6A683360029B66
:103B9000C7F80CA047F66451134401FB04F4B9685C
:103BA0001A469C4208BF002251456A6028D02B6803
:103BB0009A42CAD10F4900234FF48072C5E90033FD
:103BC00081F89C353360A7F80320FB600BB0BDEC97
:103BD000028BBDE8F08F00BFE80100200800002044
:103BE0005C3E022014020020000000CBFEFFFF4AD2
:103BF0000000003614F20120ABAAAAAA200200207D
:103C0000BBF1000FD3D1144987F803B0584604F034
:103C10000BFA1249584604F007FA0F49584604F0C7
:103C200003FA092087F803B0FDF74CFDD5E9002120
:103C300091420B4B89D11B78012BBBD1094BC3F8A7
:103C40000090094B01221A70B4E72A6800239A42B7
:103C50006B607FF47AAFF1E718E2020834E2020801
:103C60005C3E0220603E02205D3E022000B585B031
:103C7000002301A8CDE901338DF80C3001F070FB71
:103C800001A8FFF715FE05B05DF804FB2DE9F04F24
:103C9000634F3D688D4283B080464AD26149A1FBA3
:103CA000053121F0010303EB5103EB1A44D15E4EC1
:103CB00097F804A034683B6005FB0AF5B368621905
:103CC00006F10C0B9A420BEB040155D31FFA83F952
:103CD000A4B2A9EB040292B24046019205F0A1FF02
:103CE00047F6645303FB0AFA019A336813445345B9
:103CF00023D1A4EB090473682C44A4B24FF000094B
:103D00009C42C6F8009005D9DFF828A19AF8033044
:103D1000002B64D108EB02004449224605F081FFE4
:103D20005BF80C3C23444BF80C3C284603B0BDE840
:103D3000F08F6B1A0D46BAE73B4E3D4B3D4D3E4969
:103D4000002483F89C4520464FF48073A5F8033087
:103D5000346074603C60EC6004F066F937492046DA
:103D600004F062F92046344904F05EF90920EC7051
:103D7000FDF7A8FC0025D8E72A46404605F051FF8C
:103D800033682F4A2B449342336022D0CDD906F5B5
:103D9000F8330024DFF89C8083F89C4520464FF4DC
:103DA00080732549A8F80330C6E900443C60C8F890
:103DB0000C4004F039F92046204904F035F920463A
:103DC0001D4904F031F9092088F80340FDF77AFC19
:103DD000ABE700232846336003B0BDE8F08F06F55B
:103DE000F8324FF480734846134982F89C95AAF83C
:103DF0000330C6F80490C7F80090CAF80C9004F09D
:103E000013F948460D4904F00FF948460A4904F0F1
:103E10000BF909208AF80390FDF754FCAAE700BFCC
:103E2000E8010020ABAAAAAA140200202002002068
:103E300014F201200800002018E2020834E202080F
:103E40002C780100014B00221A71704708000020F5
:103E5000BFF34F8F0549064BCA6802F4E062134373
:103E6000CB60BFF34F8F00BFFDE700BF00ED00E068
:103E70000400FA0508B50549002004F0D5F8BDE8AE
:103E800008400349002004F0CFB800BF50E2020808
:103E900064E2020810B501F02FF9044601F030F990
:103EA00001462046BDE8104003F004BFF0B5424E85
:103EB000747895B005469CB94049204604F0B4F8A2
:103EC0003F49204604F0B0F801F01AF90D2837D028
:103ED0003C4A3D49002015B0BDE8F04004F0A4B8CC
:103EE0003A49002004F0A0F83549002004F09CF87D
:103EF00001F006F90D28EBD101F0FEF8044602A806
:103F000003F052F80C2221460DF10F0005F0FEFDE2
:103F1000074600283DD1227B2D498DF80E2004F064
:103F200083F802A803F00CF80446002837D096F86E
:103F30006E0000973B460122294600F08BFF1CE0F3
:103F400001F0DAF8074602A803F02EF83A7B204980
:103F50008DF80E20204604F067F802A802F0F0FF6A
:103F6000074660B91B4904F05FF896F86E000097A9
:103F700002223B46294600F06DFF15B0F0BD96F8D1
:103F80006E00009423460122294600F063FF15B01D
:103F9000F0BD1149002004F047F815B0F0BD0D49FF
:103FA00004F042F896F86E00009402222346294657
:103FB00000F050FFE1E700BF080000206CE20208BB
:103FC00084E20208E0AC020890E20208F0E2020893
:103FD000BCE20208D4E2020804E302082DE9F04141
:103FE0009C49DFF8A482A6B00746002004F01CF824
:103FF00001F082F8044601F083F897490546002055
:1040000004F012F802A802F0CFFF02A802F0DCFFD1
:104010009249002004F008F898F80160EDB2002EF3
:104020006DD18F49304603F0FFFF8E49304603F0D3
:10403000FBFF3C2D00F0FB80242D40F0F0808A4AED
:104040008A49304603F0F0FF0123227B8DF81D20C2
:10405000627B8DF81E20A27B8DF81F20E27B8DF8FD
:104060002020227C8DF82120627C8DF82220A27CE9
:104070008DF82320E27C8DF82420227D8DF82520E8
:10408000627D8DF82620A27D8DF82720E27D8DF8B7
:104090002820032BA369CDF82930E369CDF82D3012
:1040A000236ACDF8313011D1636ACDF83530A36A77
:1040B000CDF83930E36ACDF83D30236BCDF841308F
:1040C000636BCDF84530A36BCDF8493002A802F000
:1040D00037FF67490446002003F0A6FF02A802F05C
:1040E00073FF002C40F0908098F86E0000942346F7
:1040F0000222394600F0AEFE26B0BDE8F0815D49EF
:10410000002003F091FF0C2221460DF10F0005F075
:10411000FDFC064630B15849002003F085FF26B06B
:10412000BDE8F081554903F07FFF4C49304603F06C
:104130007BFF4B49304603F077FF4A49304603F096
:1041400073FF3C2D484A79D0242D7DD14749304614
:1041500003F06AFF01254049002003F065FF14A821
:1041600002F022FF14A802F02FFF237B8DF86530A8
:10417000637B8DF86630A37B8DF86730E37B8DF829
:104180006830237C8DF86930637C8DF86A30A37CBD
:104190008DF86B30E37C8DF86C30237D8DF86D30BD
:1041A000637D8DF86E30A37D8DF86F30E37D8DF8E3
:1041B0007030A369CDF87130E369CDF87530236AAA
:1041C000CDF87930032D11D1636ACDF87D30A36A23
:1041D000CDF88130E36ACDF88530236BCDF8893096
:1041E000636BCDF88D30A36BCDF8913014A802F03D
:1041F000A7FE1F490446002003F016FF14A802F092
:10420000E3FE002C3FF470AF002398F86E0000939B
:104210000122394600F01EFE26B0BDE8F081124AA8
:104220001749304603F000FF26B0BDE8F0810E4A82
:104230001449304603F0F8FE032306E711493046DF
:1042400003F0F2FE032586E70D49304603F0ECFE4D
:1042500065E700BF20E3020834E3020850E30208E8
:104260006CE202086CE30208F0AC02089CE302086E
:10427000DCE30208F0E2020804E3020800E40208BA
:10428000BCE302087CE3020808000020F0B5ADB0F2
:10429000054600F031FF744C74490646002003F0D7
:1042A000C3FE02A802F080FE67787149002F6ED02D
:1042B000002003F0B9FE6F49002003F0B5FE31463F
:1042C0000C220DF10F0005F021FC0646002840F0FD
:1042D000C580674903F0A8FE3046664903F0A4FE96
:1042E000D4F86F00D4F87310D4F8772014AB07C358
:1042F000DDF81D00DDF82110DDF8252007C394F856
:104300007B10236AA28C8DF8681029465F25CDF8B2
:104310006930ADF86D20D4F82630CDF86F30D4E98F
:1043200013020095256BCDF87750656BCDF87B5067
:10433000A56BCDF87F50E56BCDF88350256CCDF89B
:104340008750656CCDF89720626DCDF88B50CDF815
:104350009B20A56CA26DCDF88F50CDF89F20256EC7
:10436000E26DCDF8930014ABCDF8A320CDF8A750A3
:104370000122656E94F86E00E46ACDF87340CDF8C2
:10438000AB5000F067FDFFF777FA2DB0F0BD38466F
:1043900003F04AFE3846374903F046FED4F86F0072
:1043A000D4F87310D4F8772014AB07C3DDF81D00E0
:1043B000DDF82110DDF8252007C394F87B20236A5F
:1043C0008DF86820CDF86930D4F82620DDF82D303E
:1043D000A18CCDF87730CDF86F20A36B626BCDF850
:1043E0007F30ADF86D10DDF83530DDF82910CDF8EF
:1043F0007B20DDF83120DDF83900CDF87310CDF8E1
:104400008320CDF88730D4E91232CDF88F30DDF833
:104410004130CDF89B30CDF89320DDF83D30CDF81C
:1044200097305F22236E0092DDF84920CDF88B0093
:10443000CDF8AB20DDF84500E26DCDF8A730294678
:1044400014ABCDF89F00CDF8A32094F86E000122A4
:1044500000F000FDFFF710FA2DB0F0BD0649002076
:1044600003F0E2FD2DB0F0BD0800002034E30208A7
:104470006CE2020814E4020834E40208F0B5244CAB
:1044800095B0074602A802F08FFD2678B6BB01233F
:10449000237030238DF81B301E4B1F4D9E7101F091
:1044A000D3F8009695F86E0039463346324600F050
:1044B000D1FC23788DF81C3002A802F041FD207851
:1044C00003F0A2FD15490246002003F0ADFD144B98
:1044D000DDF80F20C5F86F20DDF813205A609DF835
:1044E0000E10DDF817009DF81B20986085F86E10FF
:1044F00085F87B20FFF74AF915B0F0BD0022D023E4
:1045000022708DF81B30044D03F062F9D1E700BF33
:104510005C3E0220000100200800002050E4020858
:104520007700002070B5134E747882B034B1124910
:10453000002002B0BDE8704003F076BD05460F498B
:10454000204603F071FD20460D4903F06DFD204625
:104550000C4903F069FDF37896F86E000094002B87
:1045600018BF0522234608BF0122294600F072FC2D
:1045700002B070BD080000206CE402086CE2020882
:1045800090E4020864E20208F0B52B4E747895B00E
:104590000546BCB92949204603F046FD2849204676
:1045A00003F042FD00F0ACFD0C2834D02046254A33
:1045B000254903F039FD2549204615B0BDE8F040F6
:1045C00003F032BD2249002003F02EFD21490620D0
:1045D00003F02AFD00F094FD0C28044613D100F0EE
:1045E0008BFD074602A802F0DFFC224639460DF19A
:1045F0000F0005F08BFA0346D0B11749002003F0F5
:1046000013FD15B0F0BD0F4A1449002015B0BDE8E8
:10461000F04003F009BD96F86E0000942346012295
:10462000294600F017FCC820FCF75CFDFFF710FCE2
:1046300096F86E000093F2E7080000206CE2020892
:10464000A0E4020804AD0208A8E40208D4E40208C9
:10465000F0E20208DCE4020804E30208F0E40208E5
:1046600070B5144E747882B034B11349002002B092
:10467000BDE8704003F0D8BC10490546204603F061
:10468000D3FC20460E4903F0CFFCFFF7F5F8B078D5
:1046900048B196F86E00009423460122294600F0A6
:1046A000D9FB02B070BD074902B0BDE8704003F00D
:1046B000BBBC00BF080000206CE402086CE20208EA
:1046C0001CE5020830E50208F0B5204E747883B08E
:1046D0000CB103B0F0BD054600F012FD0228F8D180
:1046E00000F00AFD038863F30F04B4F5806FF0D87F
:1046F0000CB304EB440496F82800012820D0144F92
:10470000214607EB8000FFF7C1FA96F8283000EB4E
:1047100083043379A4B28BB101233B55FFF792FB9D
:1047200001221444A4B296F86E00094B0094294665
:1047300000F090FBCDE74FF44064DCE73B55EDE73C
:10474000034801F053FB96F82800D8E70800002042
:10475000B4F70120F0B52C4F7D789BB035B12B49D3
:1047600000201BB0BDE8F04003F05EBC064600F040
:10477000C7FC274A044600283FD1264903F054FCD1
:10478000FEF7FCFF244900F03F05204603F04CFCF7
:104790002A462046214903F047FC1F49204603F0E2
:1047A00043FC2846FCF79EFC20461D4903F03CFCD8
:1047B00020461C4903F038FC1B49204603F034FC1A
:1047C00008A802F0F1FB00F003FD02460068516802
:1047D000926802AC234607C4DDF83500DDF83910D5
:1047E000DDF83D2007C4182297F86E00009231468C
:1047F000012200F02FFB1BB0F0BD0C4928461BB076
:10480000BDE8F04003F010BC080000206CE4020892
:1048100014AD020850E5020870E5020898E50208A8
:104820006CE20208B8E5020834E30208CCE50208AD
:1048300070B52B4C637882B033B12A49002002B0A6
:10484000BDE8704003F0F0BB27490646184603F068
:10485000EBFB00F051FC0568002D3CD0A38CDFED94
:10486000236A07EE903A07EE105AF8EE677AB8EE30
:10487000477A67EEA67A67EE877A17EE900AFBF71B
:10488000EBFE41EC100B06F09FF951EC100BFCF71E
:10489000D5F9174902460546002003F0C5FBFEF78F
:1048A000CFFFA07805EB4503A36058B9114903F089
:1048B000BBFBA36810492A46002002B0BDE8704047
:1048C00003F0B2BB0023009394F86E00314601223E
:1048D00000F0C0FAEDE70949284603F0A5FBBDE763
:1048E000080000206CE402086CE202086F12833AB0
:1048F0000CE602082CE602084CE60208F4E5020881
:104900002DE9F041A24E74789AB00546002C3AD1B8
:10491000A049204603F088FB9F49204603F084FB12
:1049200000F0EEFB0D2826D100F0E6FB08AF0446B0
:10493000384602F039FB237B8DF83330702B00F0C2
:10494000838078D8402B7FD000F2CD80202B7BD085
:1049500003F0DF03102B77D09049002003F064FBB5
:104960000222002396F86E000093294600F072FAA6
:104970001AB0BDE8F0818A4A8A4900201AB0BDE821
:10498000F04103F051BB8849002003F04DFB824900
:10499000002003F049FB00F0B3FB0D28EBD100F041
:1049A000ABFB08AF0446384602F0FEFA94F80C80E0
:1049B0008DF8338021460C220DF1270005F0A6F872
:1049C000002861D1B8F1700F0DD064D8B8F1400F54
:1049D00009D000F2A180B8F1200F04D008F0DF0860
:1049E000B8F1100FB8D1384602F0AAFA6F499DF815
:1049F0002620002003F018FB9DF83310002203ABA3
:104A000070290392C3E90122C3E9032200F09180D7
:104A10006FD9B02900F0948000F29480902900F0C2
:104A20009A80A0294BD0802940F0A680604A07CA0E
:104A300083E807004AE0B02B06D04ED803F0EF021F
:104A4000802A01D0A02B87D1384602F079FA574945
:104A50009DF82620002003F0E7FA9DF8331000228D
:104A600003AB80290392C3E90122C3E90322DDD00D
:104A70001ED8402979D058D820295FD0302979D044
:104A8000102979D14B4A1BE04B49002003F0CCFAA6
:104A90001AB0BDE8F081B8F1B00FA4D035D808F055
:104AA000EF03802B9FD0B8F1A00F7FF455AF9AE7AA
:104AB000B02945D046D890294DD0A0295CD13F4A95
:104AC00007CA1C4603C42280120C9A721A463C493B
:104AD000002003F0A9FA012243E703F0EF03C02B03
:104AE0007FF43AAFB0E7502BAED0602B7FF434AFF9
:104AF000AAE7402939D0BFD9502943D060293BD1FA
:104B0000304A07CA83E80700E0E708F0EF08B8F189
:104B1000C00F7FF421AF66E7B8F1500F3FF463AFE9
:104B2000B8F1600F7FF418AF5DE76029E8D0702915
:104B300022D1254A07CA83E80700C7E7234ABFE70F
:104B4000234ABDE7C0290BD0D02915D1214A07CA75
:104B500083E80700BAE7204A07CA83E80700B5E7F9
:104B60001E4A07CA83E80700B0E71D4A07CA83E860
:104B70000700ABE71B4AA3E71B4A07CA1C4603C44E
:104B80002280A3E7194A07CA83E807009EE700BF0F
:104B9000080000206CE202087CE6020888E60208B1
:104BA00028AD0208F0E40208F0E20208BCE20208C4
:104BB000ECE60208A4E6020804E3020804E702089F
:104BC00040E70208D4E60208E0E60208B0E6020880
:104BD00010E7020828E70208F8E602081CE70208C6
:104BE000C8E60208BCE6020834E7020858E70208F3
:104BF000F0B583B000F0CEF9022801D003B0F0BDCB
:104C0000794E4FF48073A6F8013000F087FA21281E
:104C100037D800F083FA044600F07AFA05460028F7
:104C200039D1122C74D001277049777003F0FCF948
:104C3000BC4221D0022C00F09880112C00F097800B
:104C4000212C00F09680222C00F09580232C00F07F
:104C50009480242C00F09380252C00F0A7802F2C2A
:104C600000F0A680262C00F0A580312C00F0A48056
:104C7000192C08BF0C25C1D15D4B204603EBC503A1
:104C800041E000F04BFA2328C3D0F378002BC0D0CA
:104C9000584900200BE000F03BFAFF280CD100251A
:104CA000012CB57057D0022C43D05349284603B08D
:104CB000BDE8F04003F0B8B900F02AFA96F86E307B
:104CC000834233D12F2C43D0252C41D0012C79D0D5
:104CD000022C75D0112C79D0122C75D0212C79D0C2
:104CE000222C75D0232C79D0242C75D0262C79D069
:104CF000312C75D0192C08BF0C237FF47FAF3C4AB0
:104D0000204602EBC3031B6E03B0BDE8F04018471A
:104D100000F0FEF996F86E30834213D00123284646
:104D200032497370032503F07FF9A5E73349062064
:104D3000BDE73349284603F077F977780FB3314957
:104D40002846B4E7204603B0BDE8F040FFF702BDB7
:104D50002D490020ABE728462C4903F065F9204691
:104D600003B0BDE8F040FFF763BD3D4684E7022590
:104D700082E7042580E705257EE706257CE70725F1
:104D80007AE72349384603F04FF93846214903F0C2
:104D90004BF9FEF771FDB07880B196F86E00009780
:104DA0003B460122214600F055F827E7082563E736
:104DB000092561E70A255FE70B255DE7164976E7D8
:104DC00001239CE700239AE7032398E7022396E751
:104DD000052394E7042392E7072390E706238EE751
:104DE0000B238CE70A238AE708000020A0E70208CB
:104DF000E0AC020864E7020824E8020898E8020828
:104E0000F4E702086CE4020874E80208C0E702084C
:104E10006CE202081CE5020830E5020808B5084B00
:104E200093F82830012B07D0FFF70CF80549002034
:104E300003F0FAF8044808BD034800F0D7FFF3E791
:104E400008000020B4E80208B4F701204FF48060A5
:104E5000704700BFF0B589B01E46BDF838508DF8D8
:104E600007008DF806108DF80520002B6DD0394F06
:104E70003868002867D005F10903022204A9002040
:104E8000ADF8103000F050F901220DF10701ADF836
:104E9000120000F049F901220DF10601ADF81200EF
:104EA00000F042F901220DF10501ADF8120000F009
:104EB0003BF902220DF10E01ADF81200ADF80E0023
:104EC00000F032F92A463146ADF8120000F02CF914
:104ED000214905919DF80710BDF80E20ADF812008C
:104EE000002361F307039DF8061061F30F239DF87B
:104EF000051061F3174362F31F63CDF81A30120AED
:104F00007B688DF81E20BDF81020ADF8182003B185
:104F100098473B680B2105A898473B6804462946FB
:104F2000304698473B68044402210DF1120098472F
:104F3000A4B2BB68204484B203B198470D35281B46
:104F4000B0FA80F0400909B0F0BD002D8FD01846AE
:104F500009B0F0BDB81B0220AAAAAAA5074B0848B1
:104F60000849094A10B4094C1C60D8605DF8044B2C
:104F70000748C3E9011202F051BF00BFB81B02206D
:104F80004D5702089D560208E55602085956020878
:104F9000554E0208F0B5504CE36883B0012713B3B7
:104FA0000DF1070040F22A3500269847D8B1238A30
:104FB0009DF80720AB421DD80A2B52D8DFE803F03A
:104FC0001616161609064C4A39371D00A18A41EA01
:104FD0000222A282013323820127E3680DF1070038
:104FE00098470028E3D1384603B0F0BD032B35D0F5
:104FF000AA2AEFD026820027EFE7638B374943EADE
:10500000022300200222638300F08EF8344901223B
:1050100000F08AF83349012200F086F83249012273
:1050200000F082F8638B8342E4D1238AD2E7628363
:10503000D0E7E17D22761129CCD12C49A07D91F8D1
:105040006E108842C6D0002AC4D02682042700F001
:1050500075FBC2E7E275BDE7A275BBE7A52AC9D11A
:10506000B8E7A18A481C984202DBE1184A74B1E70C
:10507000881C834229D003318B42ABD1B4F83C73F6
:10508000164907EB0227BFB200200222A4F83C73A6
:10509000208200F049F81249012200F045F8114938
:1050A000012200F041F81049012200F03DF81049BA
:1050B000022200F039F8A28A0E49093A92B200F0B1
:1050C00033F8874204D0032787E7A4F83C2381E71D
:1050D00000F02AFA022780E7B81B0220CC1B02202E
:1050E000CE1B0220CF1B0220D01B02200800002074
:1050F000D21B0220D41B022000487047D41B022080
:10510000024B988A093880B2704700BFB81B022052
:10511000014B987D704700BFB81B0220014BD87D22
:10512000704700BFB81B0220BAB102F1FF3C1FFA62
:105130008CFC10B40CF1010C084C8C4411F8012BC0
:1051400082EA1022030234F812009BB2614580EA21
:105150000300F3D15DF8044B70477047A4AD02081B
:1051600010B5074C864684460FCCACE80F000FCC38
:10517000ACE80F002368CCF80030704610BD00BFCB
:10518000F81E022010B58AB0044603AB02AA01A99A
:1051900000F068FF06AB05AA04A904F57A5000F0F8
:1051A00061FF09AB08AA07A904F5FA4000F05AFF0D
:1051B0000DF1040CBCE80F00044C0FC4BCE80F0058
:1051C0000FC4DCF8003023600AB010BDF81E0220C6
:1051D00010B592B0074C684601F0E6FEDDF8070016
:1051E000DDF80B10DDF80F20234607C3204612B070
:1051F00010BD00BF1C1F022010B5430086B0002464
:1052000043F001031B488DF80730224610218DF82A
:105210000F40FCF721FF05940594059B012B05DC4D
:10522000059B01330593059B012BF9DD642312488F
:1052300001220DF10701FDF765FA002304930493A1
:10524000049B012B05DC049B01330493049B012B7D
:10525000F9DD64230DF10F0101220748FDF7ACFCD5
:10526000044801221021FCF7F7FE9DF80F0006B05C
:1052700010BD00BF000002408023022010B5430093
:1052800084B043F001031A488DF807300C46002221
:105290001021FCF7E1FE002303930393039B012BF2
:1052A00005DC039B01330393039B012BF9DD64238E
:1052B000104801220DF10701FDF724FA00230293A3
:1052C0000293029B012B05DC029B01330293029B9C
:1052D000012BF9DD6423214609220648FDF76CFC09
:1052E000034801221021FCF7B7FE04B010BD00BF37
:1052F000000002408023022000B585B05A231648E2
:10530000ADF8043000221021FCF7A6FE0023039321
:105310000393039B132B05DC039B01330393039B34
:10532000132BF9DD64230D48022201A9FDF7EAF9E8
:10533000002302930293029B132B05DC029B013393
:105340000293029B132BF9DD034801221021FCF785
:1053500083FE05B05DF804FB0000024080230220BC
:1053600001460820FFF78ABF012810B524D0022883
:1053700002D088B1002010BD0820FFF73DFF044691
:105380000920FFF739FF240403460A2004EB032415
:10539000FFF732FF204410BD0E20FFF72DFF04461B
:1053A0000F20FFF729FF24040346102004EB0324F9
:1053B000FFF722FF204410BD0B20FFF71DFF04461E
:1053C0000C20FFF719FF240403460D2004EB0324EF
:1053D000FFF712FF204410BD702803463CD00CD8C4
:1053E000402836D01FD820281AD0302826D0102B9D
:1053F0001B4808BF4FF496507047A0281BD007D910
:10540000B02821D0174A1648C02B08BF1046704755
:1054100080281BD0902B124808BF4FF46140704782
:105420004FF4E150704750280BD0602B0C4808BF58
:105430004FF4E14070474FF4E13070474FF416509D
:1054400070474FF496407047074870474FF4164036
:1054500070474FF46150704748F24030704700BFCA
:1054600060E3160040420F0020A1070008B5642049
:10547000FBF738FE00F060F8F9E700BF000000001D
:1054800010B5002396B0CDE90A33CDE90C33CDE950
:105490000333CDE90533224901930793086C214A70
:1054A00040F080500864096C01F08051019101992D
:1054B0000293136843F440431360136803F44043BA
:1054C000022402934FF480019FED137BCDE90E413E
:1054D0000298149402200221CDE9120106225023E1
:1054E00008A88DED087B10921193FCF7AFFE78B9F8
:1054F0000F210346CDE903144FF4805203A8032182
:10550000CDE905320793FCF7E7FD08B916B010BDE9
:10551000FFF7ACFFAFF300800100000000000100C6
:10552000003802400070004002484FF48071FCF7E0
:1055300097BD00BF0004024002484FF40071FCF721
:105540008FBD00BF0004024030B500228BB0CDE912
:105550000422CDE90622294B01920892196B284DAD
:10556000284C41F001011963196B01F0010101910F
:1055700001990292196B41F002011963196B01F054
:105580000201029102990392196B41F080011963A3
:105590001B6B03F08003039328464FF44071039B79
:1055A000FCF75AFD204601221021FCF755FD4FF46F
:1055B000B8520123CDE9042328460022002304A980
:1055C000CDE90623FCF77EFB10220123CDE904235D
:1055D00004A9002203232046CDE90623FCF772FB31
:1055E000094B0822CDE9042304A902220323204603
:1055F000CDE90623FCF766FB0BB030BD0038024056
:1056000000040240000002400000111008B5FEF73F
:105610002DFB054B054808225A614FF40071BDE887
:105620000840FCF71DBD00BF003C014000040240E3
:10563000044BDA6842F00402DA60DA6842F02002D1
:10564000DA60704700100140024B00221A609A8015
:10565000704700BFB800002008B109B9084670477C
:105660000D4B93F83920202AF8D110B41C6800EBB8
:10567000010C42F2117301E0013B08D022681206CE
:10568000FAD510F8013B63606045F2D123685DF8FC
:10569000044B0846704700BF341F022010B50F4C62
:1056A0000F48E36823F00403E360E36823F020037A
:1056B000E36001224FF48051FCF7CEFC0122084840
:1056C0004FF48061FCF7C8FCE26842F008024FF436
:1056D000C873E26000BF013BFCD110BD0010014067
:1056E0000004024038B54FF4C87400BF013CFCD13F
:1056F000104D1148EB6823F00803EB6022464FF48D
:105700008051FCF7A9FC0C4822464FF48061FCF75D
:10571000A3FC6423013B9BB22A686A68002BF9D181
:10572000EB6843F00403EB60EB6843F02003EB60AD
:1057300038BD00BF0010014000040240024B0022AF
:105740001A609A80704700BFB80000200D4B5A883D
:105750001988914213D0B3F806C0013292B2B2FB5D
:10576000FCF10CFB11215A80B3F804C08AB299688D
:10577000895C01700CF1FF329A8001207047002093
:10578000704700BFB800002010B50A4C00224FF44B
:1057900080512046FCF760FC00224FF480612046D7
:1057A000FCF75AFC044B1A68D36843F02003D3601B
:1057B00010BD00BF00040240341F022030B5294C48
:1057C000294923680978DA6822F0200283B0DA6078
:1057D000DA6822F48072DA605A69002022F001024D
:1057E0005A6101901A6801925A680192019A5A68A6
:1057F0006264A9B101290DD1FBF76EFCA36CC01A3C
:1058000004282CD8606CC0B201F074FFFBF764FC74
:105810002368A064DA6842F02002DA6003B030BD89
:105820001249606C0A88B1F806C04D8801325FFAEF
:1058300080FEB2FBFCF00CFB102080B28542E9D068
:1058400092B20A80B2FBFCF30CFB13228B8801336B
:1058500092B28B808B6803F802E02368DAE701F0EC
:10586000B7FFCFE7341F02205C3E0220B8000020C3
:105870002DE9F043002289B006464FF48051C44818
:10588000C44CFCF7E9FB4FF48061C1480022FCF7EF
:10589000E3FB0025C04B2360304684F84150FFF7FE
:1058A0009BFD94F83910E5610423C4E90105C4E9BE
:1058B0000355C4E90535002900F02F811946284613
:1058C0002E462368242284F83920DA6822F4005214
:1058D000DA601A6922F4405232431A61DA6822F41B
:1058E000164222F00C020A43DA605A6922F440722E
:1058F0002A43B0F5004F5A61A74A00F0B0809342A6
:105900006ED002F5806293426AD0FCF77FFC636838
:10591000DFF8908200EB80009B0000EB8000B0FB82
:10592000F3F7FCF773FCA8FB0737636800EB800014
:105930009B0000EB8006B6FBF3F6FCF767FC6368A0
:1059400000EB80009B0000EB8000B0FBF3F0A8FBB5
:10595000003040094FF0640909FB10663601FCF77E
:1059600055FC3236A8FB063663687F09760900EBE2
:10597000800202EB82029B003F0106F0F006B2FBC0
:10598000F3F5FCF743FC636800EB80009B0000EB41
:105990008000B0FBF3F0A8FB0030400909FB105277
:1059A00012013232A8FB0282C2F34312236832434F
:1059B0003A449A601A6922F490421A615A6922F0B4
:1059C0002A025A61DA682021002042F40052DA608B
:1059D000E06384F8391084F83A1009B0BDE8F08328
:1059E000FCF724FC6368DFF8BC8100EB80009B00BF
:1059F00000EB8000B0FBF3F7FCF718FCA8FB0737BF
:105A0000636800EB80009B0000EB8006B6FBF3F6BA
:105A1000FCF70CFC636800EB80009B0000EB80004F
:105A2000B0FBF3F0A8FB003040094FF0640909FB1C
:105A300010663601FCF7FAFB3236A8FB06366368BF
:105A40007F09760900EB80009B003F0106F0F0061D
:105A500000EB8000B0FBF3F5FCF7E8FB93E7934223
:105A600000F0A28002F58062934200F09D80FCF776
:105A7000CDFB6368DFF82C8100EB80005B0000EB5E
:105A80008007B7FBF3F7FCF7C1FBA8FB0737636898
:105A900000EB80005B0000EB8006B6FBF3F6FCF742
:105AA000B5FB636800EB800000EB80005B00B0FB9F
:105AB000F3F3A8FB03235B094FF0640909FB1366AA
:105AC000F600FCF7A3FB3236A8FB063663687F09B5
:105AD000360900EB800202EB82025B003F0106F414
